{
  "contractName": "RealEstateNFT",
  "abi": [
    {
      "inputs": [
        {
          "internalType": "address",
          "name": "_VRFCoordinator",
          "type": "address"
        },
        {
          "internalType": "address",
          "name": "_LinkToken",
          "type": "address"
        },
        {
          "internalType": "bytes32",
          "name": "_keyHash",
          "type": "bytes32"
        }
      ],
      "stateMutability": "nonpayable",
      "type": "constructor"
    },
    {
      "anonymous": false,
      "inputs": [
        {
          "indexed": true,
          "internalType": "address",
          "name": "owner",
          "type": "address"
        },
        {
          "indexed": true,
          "internalType": "address",
          "name": "approved",
          "type": "address"
        },
        {
          "indexed": true,
          "internalType": "uint256",
          "name": "tokenId",
          "type": "uint256"
        }
      ],
      "name": "Approval",
      "type": "event"
    },
    {
      "anonymous": false,
      "inputs": [
        {
          "indexed": true,
          "internalType": "address",
          "name": "owner",
          "type": "address"
        },
        {
          "indexed": true,
          "internalType": "address",
          "name": "operator",
          "type": "address"
        },
        {
          "indexed": false,
          "internalType": "bool",
          "name": "approved",
          "type": "bool"
        }
      ],
      "name": "ApprovalForAll",
      "type": "event"
    },
    {
      "anonymous": false,
      "inputs": [
        {
          "indexed": true,
          "internalType": "address",
          "name": "previousOwner",
          "type": "address"
        },
        {
          "indexed": true,
          "internalType": "address",
          "name": "newOwner",
          "type": "address"
        }
      ],
      "name": "OwnershipTransferred",
      "type": "event"
    },
    {
      "anonymous": false,
      "inputs": [
        {
          "indexed": true,
          "internalType": "address",
          "name": "from",
          "type": "address"
        },
        {
          "indexed": true,
          "internalType": "address",
          "name": "to",
          "type": "address"
        },
        {
          "indexed": true,
          "internalType": "uint256",
          "name": "tokenId",
          "type": "uint256"
        }
      ],
      "name": "Transfer",
      "type": "event"
    },
    {
      "inputs": [
        {
          "internalType": "address",
          "name": "to",
          "type": "address"
        },
        {
          "internalType": "uint256",
          "name": "tokenId",
          "type": "uint256"
        }
      ],
      "name": "approve",
      "outputs": [],
      "stateMutability": "nonpayable",
      "type": "function"
    },
    {
      "inputs": [
        {
          "internalType": "address",
          "name": "owner",
          "type": "address"
        }
      ],
      "name": "balanceOf",
      "outputs": [
        {
          "internalType": "uint256",
          "name": "",
          "type": "uint256"
        }
      ],
      "stateMutability": "view",
      "type": "function",
      "constant": true
    },
    {
      "inputs": [],
      "name": "baseURI",
      "outputs": [
        {
          "internalType": "string",
          "name": "",
          "type": "string"
        }
      ],
      "stateMutability": "view",
      "type": "function",
      "constant": true
    },
    {
      "inputs": [
        {
          "internalType": "uint256",
          "name": "tokenId",
          "type": "uint256"
        }
      ],
      "name": "getApproved",
      "outputs": [
        {
          "internalType": "address",
          "name": "",
          "type": "address"
        }
      ],
      "stateMutability": "view",
      "type": "function",
      "constant": true
    },
    {
      "inputs": [
        {
          "internalType": "address",
          "name": "owner",
          "type": "address"
        },
        {
          "internalType": "address",
          "name": "operator",
          "type": "address"
        }
      ],
      "name": "isApprovedForAll",
      "outputs": [
        {
          "internalType": "bool",
          "name": "",
          "type": "bool"
        }
      ],
      "stateMutability": "view",
      "type": "function",
      "constant": true
    },
    {
      "inputs": [],
      "name": "name",
      "outputs": [
        {
          "internalType": "string",
          "name": "",
          "type": "string"
        }
      ],
      "stateMutability": "view",
      "type": "function",
      "constant": true
    },
    {
      "inputs": [],
      "name": "owner",
      "outputs": [
        {
          "internalType": "address",
          "name": "",
          "type": "address"
        }
      ],
      "stateMutability": "view",
      "type": "function",
      "constant": true
    },
    {
      "inputs": [
        {
          "internalType": "uint256",
          "name": "tokenId",
          "type": "uint256"
        }
      ],
      "name": "ownerOf",
      "outputs": [
        {
          "internalType": "address",
          "name": "",
          "type": "address"
        }
      ],
      "stateMutability": "view",
      "type": "function",
      "constant": true
    },
    {
      "inputs": [
        {
          "internalType": "uint256",
          "name": "",
          "type": "uint256"
        }
      ],
      "name": "properties",
      "outputs": [
        {
          "internalType": "string",
          "name": "landDescription",
          "type": "string"
        },
        {
          "internalType": "string",
          "name": "propertyAddress",
          "type": "string"
        },
        {
          "internalType": "string",
          "name": "name",
          "type": "string"
        },
        {
          "internalType": "int256",
          "name": "estimatedPropertyValue",
          "type": "int256"
        },
        {
          "internalType": "string",
          "name": "schoolZoning",
          "type": "string"
        },
        {
          "internalType": "string",
          "name": "buildingPermits",
          "type": "string"
        },
        {
          "internalType": "string",
          "name": "municipality",
          "type": "string"
        }
      ],
      "stateMutability": "view",
      "type": "function",
      "constant": true
    },
    {
      "inputs": [
        {
          "internalType": "bytes32",
          "name": "requestId",
          "type": "bytes32"
        },
        {
          "internalType": "uint256",
          "name": "randomness",
          "type": "uint256"
        }
      ],
      "name": "rawFulfillRandomness",
      "outputs": [],
      "stateMutability": "nonpayable",
      "type": "function"
    },
    {
      "inputs": [],
      "name": "renounceOwnership",
      "outputs": [],
      "stateMutability": "nonpayable",
      "type": "function"
    },
    {
      "inputs": [
        {
          "internalType": "address",
          "name": "from",
          "type": "address"
        },
        {
          "internalType": "address",
          "name": "to",
          "type": "address"
        },
        {
          "internalType": "uint256",
          "name": "tokenId",
          "type": "uint256"
        }
      ],
      "name": "safeTransferFrom",
      "outputs": [],
      "stateMutability": "nonpayable",
      "type": "function"
    },
    {
      "inputs": [
        {
          "internalType": "address",
          "name": "from",
          "type": "address"
        },
        {
          "internalType": "address",
          "name": "to",
          "type": "address"
        },
        {
          "internalType": "uint256",
          "name": "tokenId",
          "type": "uint256"
        },
        {
          "internalType": "bytes",
          "name": "_data",
          "type": "bytes"
        }
      ],
      "name": "safeTransferFrom",
      "outputs": [],
      "stateMutability": "nonpayable",
      "type": "function"
    },
    {
      "inputs": [
        {
          "internalType": "address",
          "name": "operator",
          "type": "address"
        },
        {
          "internalType": "bool",
          "name": "approved",
          "type": "bool"
        }
      ],
      "name": "setApprovalForAll",
      "outputs": [],
      "stateMutability": "nonpayable",
      "type": "function"
    },
    {
      "inputs": [
        {
          "internalType": "bytes4",
          "name": "interfaceId",
          "type": "bytes4"
        }
      ],
      "name": "supportsInterface",
      "outputs": [
        {
          "internalType": "bool",
          "name": "",
          "type": "bool"
        }
      ],
      "stateMutability": "view",
      "type": "function",
      "constant": true
    },
    {
      "inputs": [],
      "name": "symbol",
      "outputs": [
        {
          "internalType": "string",
          "name": "",
          "type": "string"
        }
      ],
      "stateMutability": "view",
      "type": "function",
      "constant": true
    },
    {
      "inputs": [
        {
          "internalType": "uint256",
          "name": "index",
          "type": "uint256"
        }
      ],
      "name": "tokenByIndex",
      "outputs": [
        {
          "internalType": "uint256",
          "name": "",
          "type": "uint256"
        }
      ],
      "stateMutability": "view",
      "type": "function",
      "constant": true
    },
    {
      "inputs": [
        {
          "internalType": "uint256",
          "name": "",
          "type": "uint256"
        }
      ],
      "name": "tokenIdToActiveLease",
      "outputs": [
        {
          "internalType": "string",
          "name": "",
          "type": "string"
        }
      ],
      "stateMutability": "view",
      "type": "function",
      "constant": true
    },
    {
      "inputs": [
        {
          "internalType": "uint256",
          "name": "",
          "type": "uint256"
        }
      ],
      "name": "tokenIdToOwner",
      "outputs": [
        {
          "internalType": "address",
          "name": "",
          "type": "address"
        }
      ],
      "stateMutability": "view",
      "type": "function",
      "constant": true
    },
    {
      "inputs": [
        {
          "internalType": "uint256",
          "name": "",
          "type": "uint256"
        }
      ],
      "name": "tokenIdToPropertyDetails",
      "outputs": [
        {
          "internalType": "string",
          "name": "schoolZoning",
          "type": "string"
        },
        {
          "internalType": "string",
          "name": "buildingPermits",
          "type": "string"
        },
        {
          "internalType": "string",
          "name": "caveats",
          "type": "string"
        },
        {
          "internalType": "string",
          "name": "municipality",
          "type": "string"
        },
        {
          "internalType": "string",
          "name": "environmentTitle",
          "type": "string"
        },
        {
          "internalType": "string",
          "name": "leasingAndMiningRights",
          "type": "string"
        },
        {
          "internalType": "string",
          "name": "geographyAndTopology",
          "type": "string"
        }
      ],
      "stateMutability": "view",
      "type": "function",
      "constant": true
    },
    {
      "inputs": [
        {
          "internalType": "address",
          "name": "owner",
          "type": "address"
        },
        {
          "internalType": "uint256",
          "name": "index",
          "type": "uint256"
        }
      ],
      "name": "tokenOfOwnerByIndex",
      "outputs": [
        {
          "internalType": "uint256",
          "name": "",
          "type": "uint256"
        }
      ],
      "stateMutability": "view",
      "type": "function",
      "constant": true
    },
    {
      "inputs": [
        {
          "internalType": "uint256",
          "name": "tokenId",
          "type": "uint256"
        }
      ],
      "name": "tokenURI",
      "outputs": [
        {
          "internalType": "string",
          "name": "",
          "type": "string"
        }
      ],
      "stateMutability": "view",
      "type": "function",
      "constant": true
    },
    {
      "inputs": [],
      "name": "totalSupply",
      "outputs": [
        {
          "internalType": "uint256",
          "name": "",
          "type": "uint256"
        }
      ],
      "stateMutability": "view",
      "type": "function",
      "constant": true
    },
    {
      "inputs": [
        {
          "internalType": "address",
          "name": "from",
          "type": "address"
        },
        {
          "internalType": "address",
          "name": "to",
          "type": "address"
        },
        {
          "internalType": "uint256",
          "name": "tokenId",
          "type": "uint256"
        }
      ],
      "name": "transferFrom",
      "outputs": [],
      "stateMutability": "nonpayable",
      "type": "function"
    },
    {
      "inputs": [
        {
          "internalType": "address",
          "name": "newOwner",
          "type": "address"
        }
      ],
      "name": "transferOwnership",
      "outputs": [],
      "stateMutability": "nonpayable",
      "type": "function"
    },
    {
      "inputs": [],
      "name": "vrfCoordinator",
      "outputs": [
        {
          "internalType": "address",
          "name": "",
          "type": "address"
        }
      ],
      "stateMutability": "view",
      "type": "function",
      "constant": true
    },
    {
      "inputs": [],
      "name": "getThePrice",
      "outputs": [
        {
          "internalType": "int256",
          "name": "",
          "type": "int256"
        }
      ],
      "stateMutability": "view",
      "type": "function",
      "constant": true
    },
    {
      "inputs": [],
      "name": "getNumberOfProperties",
      "outputs": [
        {
          "internalType": "uint256",
          "name": "",
          "type": "uint256"
        }
      ],
      "stateMutability": "view",
      "type": "function",
      "constant": true
    },
    {
      "inputs": [
        {
          "internalType": "uint256",
          "name": "tokenId",
          "type": "uint256"
        }
      ],
      "name": "getPropertyMetadata",
      "outputs": [
        {
          "internalType": "string",
          "name": "",
          "type": "string"
        },
        {
          "internalType": "string",
          "name": "",
          "type": "string"
        },
        {
          "internalType": "string",
          "name": "",
          "type": "string"
        },
        {
          "internalType": "int256",
          "name": "",
          "type": "int256"
        },
        {
          "internalType": "string",
          "name": "",
          "type": "string"
        },
        {
          "internalType": "string",
          "name": "",
          "type": "string"
        },
        {
          "internalType": "string",
          "name": "",
          "type": "string"
        }
      ],
      "stateMutability": "view",
      "type": "function",
      "constant": true
    },
    {
      "inputs": [
        {
          "internalType": "uint256",
          "name": "tokenId",
          "type": "uint256"
        },
        {
          "internalType": "string",
          "name": "schoolZoning",
          "type": "string"
        },
        {
          "internalType": "string",
          "name": "buildingPermits",
          "type": "string"
        },
        {
          "internalType": "string",
          "name": "caveats",
          "type": "string"
        },
        {
          "internalType": "string",
          "name": "municipality",
          "type": "string"
        },
        {
          "internalType": "string",
          "name": "environmentTitle",
          "type": "string"
        },
        {
          "internalType": "string",
          "name": "leasingAndMiningRights",
          "type": "string"
        },
        {
          "internalType": "string",
          "name": "geographyAndTopology",
          "type": "string"
        }
      ],
      "name": "updateTokenPropertyDetails",
      "outputs": [],
      "stateMutability": "nonpayable",
      "type": "function"
    },
    {
      "inputs": [
        {
          "internalType": "string",
          "name": "name",
          "type": "string"
        },
        {
          "internalType": "int256",
          "name": "estimatedPropertyValue",
          "type": "int256"
        },
        {
          "internalType": "string",
          "name": "description",
          "type": "string"
        },
        {
          "internalType": "string",
          "name": "propertyAddress",
          "type": "string"
        },
        {
          "internalType": "string",
          "name": "activeLease",
          "type": "string"
        },
        {
          "internalType": "string",
          "name": "schoolZoning",
          "type": "string"
        },
        {
          "internalType": "string",
          "name": "buildingPermits",
          "type": "string"
        },
        {
          "internalType": "string",
          "name": "municipality",
          "type": "string"
        }
      ],
      "name": "requestToMintNewRealEstateToken",
      "outputs": [],
      "stateMutability": "nonpayable",
      "type": "function"
    },
    {
      "inputs": [
        {
          "internalType": "uint256",
          "name": "tokenId",
          "type": "uint256"
        },
        {
          "internalType": "string",
          "name": "_tokenURI",
          "type": "string"
        }
      ],
      "name": "setTokenURI",
      "outputs": [],
      "stateMutability": "nonpayable",
      "type": "function"
    }
  ],
  "bytecode": "0x60c06040523480156200001157600080fd5b5060405162005d9038038062005d90833981810160405260608110156200003757600080fd5b8101908080519060200190929190805190602001909291908051906020019092919050505082826040518060400160405280600d81526020017f5265616c4573746174654e4654000000000000000000000000000000000000008152506040518060400160405280600381526020017f5245540000000000000000000000000000000000000000000000000000000000815250620000e26301ffc9a760e01b6200033460201b60201c565b8160069080519060200190620000fa92919062000445565b5080600790805190602001906200011392919062000445565b506200012c6380ac58cd60e01b6200033460201b60201c565b62000144635b5e139f60e01b6200033460201b60201c565b6200015c63780e9d6360e01b6200033460201b60201c565b50508173ffffffffffffffffffffffffffffffffffffffff1660a08173ffffffffffffffffffffffffffffffffffffffff1660601b815250508073ffffffffffffffffffffffffffffffffffffffff1660808173ffffffffffffffffffffffffffffffffffffffff1660601b8152505050506000620001e06200043d60201b60201c565b905080600b60006101000a81548173ffffffffffffffffffffffffffffffffffffffff021916908373ffffffffffffffffffffffffffffffffffffffff1602179055508073ffffffffffffffffffffffffffffffffffffffff16600073ffffffffffffffffffffffffffffffffffffffff167f8be0079c531659141344cd1fd0a4f28419497f9722a3daafe3b4186f6b6457e060405160405180910390a3508060138190555082601460006101000a81548173ffffffffffffffffffffffffffffffffffffffff021916908373ffffffffffffffffffffffffffffffffffffffff1602179055506714d1120d7b160000601581905550738a753747a1fa494ec906ce90e9f37563a8af630e600f60006101000a81548173ffffffffffffffffffffffffffffffffffffffff021916908373ffffffffffffffffffffffffffffffffffffffff160217905550505050620004f4565b63ffffffff60e01b817bffffffffffffffffffffffffffffffffffffffffffffffffffffffff19161415620003d1576040517f08c379a000000000000000000000000000000000000000000000000000000000815260040180806020018281038252601c8152602001807f4552433136353a20696e76616c696420696e746572666163652069640000000081525060200191505060405180910390fd5b6001600080837bffffffffffffffffffffffffffffffffffffffffffffffffffffffff19167bffffffffffffffffffffffffffffffffffffffffffffffffffffffff1916815260200190815260200160002060006101000a81548160ff02191690831515021790555050565b600033905090565b828054600181600116156101000203166002900490600052602060002090601f016020900481019282601f106200048857805160ff1916838001178555620004b9565b82800160010185558215620004b9579182015b82811115620004b85782518255916020019190600101906200049b565b5b509050620004c89190620004cc565b5090565b620004f191905b80821115620004ed576000816000905550600101620004d3565b5090565b90565b60805160601c60a05160601c61587762000519600039806129565250506158776000f3fe608060405234801561001057600080fd5b50600436106101f05760003560e01c8063715018a61161010f578063a3e56fa8116100a2578063e985e9c511610071578063e985e9c514611634578063f25624de146116b0578063f2fde38b14611b00578063f7b1080814611b44576101f0565b8063a3e56fa814611420578063b88d4fde1461146a578063c87b56dd1461156f578063ccca357414611616576101f0565b806395d89b41116100de57806395d89b4114610d545780639c49b15714610dd75780639cb196c1146110a1578063a22cb465146113d0576101f0565b8063715018a614610caa5780638c3c9a5514610cb45780638da5cb5b14610cd257806394985ddd14610d1c576101f0565b80632f745c59116101875780636352211e116101565780636352211e14610af35780636c0360eb14610b615780636e9e48ef14610be457806370a0823114610c52576101f0565b80632f745c591461059157806342842e0e146105f35780634326c2a9146106615780634f6ccce714610ab1576101f0565b8063162094c4116101c3578063162094c414610399578063166f5dc01461045e57806318160ddd1461050557806323b872dd14610523576101f0565b806301ffc9a7146101f557806306fdde031461025a578063081812fc146102dd578063095ea7b31461034b575b600080fd5b6102406004803603602081101561020b57600080fd5b8101908080357bffffffffffffffffffffffffffffffffffffffffffffffffffffffff19169060200190929190505050611e0e565b604051808215151515815260200191505060405180910390f35b610262611e75565b6040518080602001828103825283818151815260200191508051906020019080838360005b838110156102a2578082015181840152602081019050610287565b50505050905090810190601f1680156102cf5780820380516001836020036101000a031916815260200191505b509250505060405180910390f35b610309600480360360208110156102f357600080fd5b8101908080359060200190929190505050611f17565b604051808273ffffffffffffffffffffffffffffffffffffffff1673ffffffffffffffffffffffffffffffffffffffff16815260200191505060405180910390f35b6103976004803603604081101561036157600080fd5b81019080803573ffffffffffffffffffffffffffffffffffffffff16906020019092919080359060200190929190505050611fb2565b005b61045c600480360360408110156103af57600080fd5b8101908080359060200190929190803590602001906401000000008111156103d657600080fd5b8201836020820111156103e857600080fd5b8035906020019184600183028401116401000000008311171561040a57600080fd5b91908080601f016020809104026020016040519081016040528093929190818152602001838380828437600081840152601f19601f8201169050808301925050505050505091929192905050506120f6565b005b61048a6004803603602081101561047457600080fd5b810190808035906020019092919050505061216a565b6040518080602001828103825283818151815260200191508051906020019080838360005b838110156104ca5780820151818401526020810190506104af565b50505050905090810190601f1680156104f75780820380516001836020036101000a031916815260200191505b509250505060405180910390f35b61050d61221a565b6040518082815260200191505060405180910390f35b61058f6004803603606081101561053957600080fd5b81019080803573ffffffffffffffffffffffffffffffffffffffff169060200190929190803573ffffffffffffffffffffffffffffffffffffffff1690602001909291908035906020019092919050505061222b565b005b6105dd600480360360408110156105a757600080fd5b81019080803573ffffffffffffffffffffffffffffffffffffffff169060200190929190803590602001909291905050506122a1565b6040518082815260200191505060405180910390f35b61065f6004803603606081101561060957600080fd5b81019080803573ffffffffffffffffffffffffffffffffffffffff169060200190929190803573ffffffffffffffffffffffffffffffffffffffff169060200190929190803590602001909291905050506122fc565b005b610aaf600480360361010081101561067857600080fd5b810190808035906020019064010000000081111561069557600080fd5b8201836020820111156106a757600080fd5b803590602001918460018302840111640100000000831117156106c957600080fd5b91908080601f016020809104026020016040519081016040528093929190818152602001838380828437600081840152601f19601f820116905080830192505050505050509192919290803590602001909291908035906020019064010000000081111561073657600080fd5b82018360208201111561074857600080fd5b8035906020019184600183028401116401000000008311171561076a57600080fd5b91908080601f016020809104026020016040519081016040528093929190818152602001838380828437600081840152601f19601f820116905080830192505050505050509192919290803590602001906401000000008111156107cd57600080fd5b8201836020820111156107df57600080fd5b8035906020019184600183028401116401000000008311171561080157600080fd5b91908080601f016020809104026020016040519081016040528093929190818152602001838380828437600081840152601f19601f8201169050808301925050505050505091929192908035906020019064010000000081111561086457600080fd5b82018360208201111561087657600080fd5b8035906020019184600183028401116401000000008311171561089857600080fd5b91908080601f016020809104026020016040519081016040528093929190818152602001838380828437600081840152601f19601f820116905080830192505050505050509192919290803590602001906401000000008111156108fb57600080fd5b82018360208201111561090d57600080fd5b8035906020019184600183028401116401000000008311171561092f57600080fd5b91908080601f016020809104026020016040519081016040528093929190818152602001838380828437600081840152601f19601f8201169050808301925050505050505091929192908035906020019064010000000081111561099257600080fd5b8201836020820111156109a457600080fd5b803590602001918460018302840111640100000000831117156109c657600080fd5b91908080601f016020809104026020016040519081016040528093929190818152602001838380828437600081840152601f19601f82011690508083019250505050505050919291929080359060200190640100000000811115610a2957600080fd5b820183602082011115610a3b57600080fd5b80359060200191846001830284011164010000000083111715610a5d57600080fd5b91908080601f016020809104026020016040519081016040528093929190818152602001838380828437600081840152601f19601f82011690508083019250505050505050919291929050505061231c565b005b610add60048036036020811015610ac757600080fd5b81019080803590602001909291905050506124cd565b6040518082815260200191505060405180910390f35b610b1f60048036036020811015610b0957600080fd5b81019080803590602001909291905050506124f0565b604051808273ffffffffffffffffffffffffffffffffffffffff1673ffffffffffffffffffffffffffffffffffffffff16815260200191505060405180910390f35b610b69612527565b6040518080602001828103825283818151815260200191508051906020019080838360005b83811015610ba9578082015181840152602081019050610b8e565b50505050905090810190601f168015610bd65780820380516001836020036101000a031916815260200191505b509250505060405180910390f35b610c1060048036036020811015610bfa57600080fd5b81019080803590602001909291905050506125c9565b604051808273ffffffffffffffffffffffffffffffffffffffff1673ffffffffffffffffffffffffffffffffffffffff16815260200191505060405180910390f35b610c9460048036036020811015610c6857600080fd5b81019080803573ffffffffffffffffffffffffffffffffffffffff1690602001909291905050506125fc565b6040518082815260200191505060405180910390f35b610cb26126d1565b005b610cbc612841565b6040518082815260200191505060405180910390f35b610cda61292a565b604051808273ffffffffffffffffffffffffffffffffffffffff1673ffffffffffffffffffffffffffffffffffffffff16815260200191505060405180910390f35b610d5260048036036040811015610d3257600080fd5b810190808035906020019092919080359060200190929190505050612954565b005b610d5c612a23565b6040518080602001828103825283818151815260200191508051906020019080838360005b83811015610d9c578082015181840152602081019050610d81565b50505050905090810190601f168015610dc95780820380516001836020036101000a031916815260200191505b509250505060405180910390f35b610e0360048036036020811015610ded57600080fd5b8101908080359060200190929190505050612ac5565b6040518080602001806020018060200188815260200180602001806020018060200187810387528e818151815260200191508051906020019080838360005b83811015610e5d578082015181840152602081019050610e42565b50505050905090810190601f168015610e8a5780820380516001836020036101000a031916815260200191505b5087810386528d818151815260200191508051906020019080838360005b83811015610ec3578082015181840152602081019050610ea8565b50505050905090810190601f168015610ef05780820380516001836020036101000a031916815260200191505b5087810385528c818151815260200191508051906020019080838360005b83811015610f29578082015181840152602081019050610f0e565b50505050905090810190601f168015610f565780820380516001836020036101000a031916815260200191505b5087810384528a818151815260200191508051906020019080838360005b83811015610f8f578082015181840152602081019050610f74565b50505050905090810190601f168015610fbc5780820380516001836020036101000a031916815260200191505b50878103835289818151815260200191508051906020019080838360005b83811015610ff5578082015181840152602081019050610fda565b50505050905090810190601f1680156110225780820380516001836020036101000a031916815260200191505b50878103825288818151815260200191508051906020019080838360005b8381101561105b578082015181840152602081019050611040565b50505050905090810190601f1680156110885780820380516001836020036101000a031916815260200191505b509d505050505050505050505050505060405180910390f35b6110cd600480360360208110156110b757600080fd5b8101908080359060200190929190505050612f81565b604051808060200180602001806020018060200180602001806020018060200188810388528f818151815260200191508051906020019080838360005b8381101561112557808201518184015260208101905061110a565b50505050905090810190601f1680156111525780820380516001836020036101000a031916815260200191505b5088810387528e818151815260200191508051906020019080838360005b8381101561118b578082015181840152602081019050611170565b50505050905090810190601f1680156111b85780820380516001836020036101000a031916815260200191505b5088810386528d818151815260200191508051906020019080838360005b838110156111f15780820151818401526020810190506111d6565b50505050905090810190601f16801561121e5780820380516001836020036101000a031916815260200191505b5088810385528c818151815260200191508051906020019080838360005b8381101561125757808201518184015260208101905061123c565b50505050905090810190601f1680156112845780820380516001836020036101000a031916815260200191505b5088810384528b818151815260200191508051906020019080838360005b838110156112bd5780820151818401526020810190506112a2565b50505050905090810190601f1680156112ea5780820380516001836020036101000a031916815260200191505b5088810383528a818151815260200191508051906020019080838360005b83811015611323578082015181840152602081019050611308565b50505050905090810190601f1680156113505780820380516001836020036101000a031916815260200191505b50888103825289818151815260200191508051906020019080838360005b8381101561138957808201518184015260208101905061136e565b50505050905090810190601f1680156113b65780820380516001836020036101000a031916815260200191505b509e50505050505050505050505050505060405180910390f35b61141e600480360360408110156113e657600080fd5b81019080803573ffffffffffffffffffffffffffffffffffffffff1690602001909291908035151590602001909291905050506133eb565b005b6114286135a3565b604051808273ffffffffffffffffffffffffffffffffffffffff1673ffffffffffffffffffffffffffffffffffffffff16815260200191505060405180910390f35b61156d6004803603608081101561148057600080fd5b81019080803573ffffffffffffffffffffffffffffffffffffffff169060200190929190803573ffffffffffffffffffffffffffffffffffffffff16906020019092919080359060200190929190803590602001906401000000008111156114e757600080fd5b8201836020820111156114f957600080fd5b8035906020019184600183028401116401000000008311171561151b57600080fd5b91908080601f016020809104026020016040519081016040528093929190818152602001838380828437600081840152601f19601f8201169050808301925050505050505091929192905050506135c9565b005b61159b6004803603602081101561158557600080fd5b8101908080359060200190929190505050613641565b6040518080602001828103825283818151815260200191508051906020019080838360005b838110156115db5780820151818401526020810190506115c0565b50505050905090810190601f1680156116085780820380516001836020036101000a031916815260200191505b509250505060405180910390f35b61161e613912565b6040518082815260200191505060405180910390f35b6116966004803603604081101561164a57600080fd5b81019080803573ffffffffffffffffffffffffffffffffffffffff169060200190929190803573ffffffffffffffffffffffffffffffffffffffff16906020019092919050505061391f565b604051808215151515815260200191505060405180910390f35b611afe60048036036101008110156116c757600080fd5b8101908080359060200190929190803590602001906401000000008111156116ee57600080fd5b82018360208201111561170057600080fd5b8035906020019184600183028401116401000000008311171561172257600080fd5b91908080601f016020809104026020016040519081016040528093929190818152602001838380828437600081840152601f19601f8201169050808301925050505050505091929192908035906020019064010000000081111561178557600080fd5b82018360208201111561179757600080fd5b803590602001918460018302840111640100000000831117156117b957600080fd5b91908080601f016020809104026020016040519081016040528093929190818152602001838380828437600081840152601f19601f8201169050808301925050505050505091929192908035906020019064010000000081111561181c57600080fd5b82018360208201111561182e57600080fd5b8035906020019184600183028401116401000000008311171561185057600080fd5b91908080601f016020809104026020016040519081016040528093929190818152602001838380828437600081840152601f19601f820116905080830192505050505050509192919290803590602001906401000000008111156118b357600080fd5b8201836020820111156118c557600080fd5b803590602001918460018302840111640100000000831117156118e757600080fd5b91908080601f016020809104026020016040519081016040528093929190818152602001838380828437600081840152601f19601f8201169050808301925050505050505091929192908035906020019064010000000081111561194a57600080fd5b82018360208201111561195c57600080fd5b8035906020019184600183028401116401000000008311171561197e57600080fd5b91908080601f016020809104026020016040519081016040528093929190818152602001838380828437600081840152601f19601f820116905080830192505050505050509192919290803590602001906401000000008111156119e157600080fd5b8201836020820111156119f357600080fd5b80359060200191846001830284011164010000000083111715611a1557600080fd5b91908080601f016020809104026020016040519081016040528093929190818152602001838380828437600081840152601f19601f82011690508083019250505050505050919291929080359060200190640100000000811115611a7857600080fd5b820183602082011115611a8a57600080fd5b80359060200191846001830284011164010000000083111715611aac57600080fd5b91908080601f016020809104026020016040519081016040528093929190818152602001838380828437600081840152601f19601f8201169050808301925050505050505091929192905050506139b3565b005b611b4260048036036020811015611b1657600080fd5b81019080803573ffffffffffffffffffffffffffffffffffffffff169060200190929190505050613b37565b005b611b7060048036036020811015611b5a57600080fd5b8101908080359060200190929190505050613d2c565b6040518080602001806020018060200188815260200180602001806020018060200187810387528e818151815260200191508051906020019080838360005b83811015611bca578082015181840152602081019050611baf565b50505050905090810190601f168015611bf75780820380516001836020036101000a031916815260200191505b5087810386528d818151815260200191508051906020019080838360005b83811015611c30578082015181840152602081019050611c15565b50505050905090810190601f168015611c5d5780820380516001836020036101000a031916815260200191505b5087810385528c818151815260200191508051906020019080838360005b83811015611c96578082015181840152602081019050611c7b565b50505050905090810190601f168015611cc35780820380516001836020036101000a031916815260200191505b5087810384528a818151815260200191508051906020019080838360005b83811015611cfc578082015181840152602081019050611ce1565b50505050905090810190601f168015611d295780820380516001836020036101000a031916815260200191505b50878103835289818151815260200191508051906020019080838360005b83811015611d62578082015181840152602081019050611d47565b50505050905090810190601f168015611d8f5780820380516001836020036101000a031916815260200191505b50878103825288818151815260200191508051906020019080838360005b83811015611dc8578082015181840152602081019050611dad565b50505050905090810190601f168015611df55780820380516001836020036101000a031916815260200191505b509d505050505050505050505050505060405180910390f35b6000806000837bffffffffffffffffffffffffffffffffffffffffffffffffffffffff19167bffffffffffffffffffffffffffffffffffffffffffffffffffffffff1916815260200190815260200160002060009054906101000a900460ff169050919050565b606060068054600181600116156101000203166002900480601f016020809104026020016040519081016040528092919081815260200182805460018160011615610100020316600290048015611f0d5780601f10611ee257610100808354040283529160200191611f0d565b820191906000526020600020905b815481529060010190602001808311611ef057829003601f168201915b5050505050905090565b6000611f228261410b565b611f77576040517f08c379a000000000000000000000000000000000000000000000000000000000815260040180806020018281038252602c815260200180615740602c913960400191505060405180910390fd5b6004600083815260200190815260200160002060009054906101000a900473ffffffffffffffffffffffffffffffffffffffff169050919050565b6000611fbd826124f0565b90508073ffffffffffffffffffffffffffffffffffffffff168373ffffffffffffffffffffffffffffffffffffffff161415612044576040517f08c379a00000000000000000000000000000000000000000000000000000000081526004018080602001828103825260218152602001806157f06021913960400191505060405180910390fd5b8073ffffffffffffffffffffffffffffffffffffffff16612063614128565b73ffffffffffffffffffffffffffffffffffffffff16148061209257506120918161208c614128565b61391f565b5b6120e7576040517f08c379a00000000000000000000000000000000000000000000000000000000081526004018080602001828103825260388152602001806156506038913960400191505060405180910390fd5b6120f18383614130565b505050565b612107612101614128565b836141e9565b61215c576040517f08c379a00000000000000000000000000000000000000000000000000000000081526004018080602001828103825260318152602001806158116031913960400191505060405180910390fd5b61216682826142dd565b5050565b60106020528060005260406000206000915090508054600181600116156101000203166002900480601f0160208091040260200160405190810160405280929190818152602001828054600181600116156101000203166002900480156122125780601f106121e757610100808354040283529160200191612212565b820191906000526020600020905b8154815290600101906020018083116121f557829003601f168201915b505050505081565b60006122266002614367565b905090565b61223c612236614128565b826141e9565b612291576040517f08c379a00000000000000000000000000000000000000000000000000000000081526004018080602001828103825260318152602001806158116031913960400191505060405180910390fd5b61229c83838361437c565b505050565b60006122f482600160008673ffffffffffffffffffffffffffffffffffffffff1673ffffffffffffffffffffffffffffffffffffffff1681526020019081526020016000206145bf90919063ffffffff16565b905092915050565b612317838383604051806020016040528060008152506135c9565b505050565b600060128054905090508460106000838152602001908152602001600020908051906020019061234d9291906154ba565b5060126040518060e001604052808981526020018881526020018b81526020018a815260200186815260200185815260200184815250908060018154018082558091505060019003906000526020600020906007020160009091909190915060008201518160000190805190602001906123c89291906154ba565b5060208201518160010190805190602001906123e59291906154ba565b5060408201518160020190805190602001906124029291906154ba565b506060820151816003015560808201518160040190805190602001906124299291906154ba565b5060a08201518160050190805190602001906124469291906154ba565b5060c08201518160060190805190602001906124639291906154ba565b50505033600e600083815260200190815260200160002060006101000a81548173ffffffffffffffffffffffffffffffffffffffff021916908373ffffffffffffffffffffffffffffffffffffffff1602179055506124c233826145d9565b505050505050505050565b6000806124e48360026145f790919063ffffffff16565b50905080915050919050565b6000612520826040518060600160405280602981526020016156b26029913960026146269092919063ffffffff16565b9050919050565b606060098054600181600116156101000203166002900480601f0160208091040260200160405190810160405280929190818152602001828054600181600116156101000203166002900480156125bf5780601f10612594576101008083540402835291602001916125bf565b820191906000526020600020905b8154815290600101906020018083116125a257829003601f168201915b5050505050905090565b600e6020528060005260406000206000915054906101000a900473ffffffffffffffffffffffffffffffffffffffff1681565b60008073ffffffffffffffffffffffffffffffffffffffff168273ffffffffffffffffffffffffffffffffffffffff161415612683576040517f08c379a000000000000000000000000000000000000000000000000000000000815260040180806020018281038252602a815260200180615688602a913960400191505060405180910390fd5b6126ca600160008473ffffffffffffffffffffffffffffffffffffffff1673ffffffffffffffffffffffffffffffffffffffff168152602001908152602001600020614645565b9050919050565b6126d9614128565b73ffffffffffffffffffffffffffffffffffffffff166126f761292a565b73ffffffffffffffffffffffffffffffffffffffff1614612780576040517f08c379a00000000000000000000000000000000000000000000000000000000081526004018080602001828103825260208152602001807f4f776e61626c653a2063616c6c6572206973206e6f7420746865206f776e657281525060200191505060405180910390fd5b600073ffffffffffffffffffffffffffffffffffffffff16600b60009054906101000a900473ffffffffffffffffffffffffffffffffffffffff1673ffffffffffffffffffffffffffffffffffffffff167f8be0079c531659141344cd1fd0a4f28419497f9722a3daafe3b4186f6b6457e060405160405180910390a36000600b60006101000a81548173ffffffffffffffffffffffffffffffffffffffff021916908373ffffffffffffffffffffffffffffffffffffffff160217905550565b600080600080600080600f60009054906101000a900473ffffffffffffffffffffffffffffffffffffffff1673ffffffffffffffffffffffffffffffffffffffff1663feaf968c6040518163ffffffff1660e01b815260040160a06040518083038186803b1580156128b257600080fd5b505afa1580156128c6573d6000803e3d6000fd5b505050506040513d60a08110156128dc57600080fd5b81019080805190602001909291908051906020019092919080519060200190929190805190602001909291908051906020019092919050505094509450945094509450839550505050505090565b6000600b60009054906101000a900473ffffffffffffffffffffffffffffffffffffffff16905090565b7f000000000000000000000000000000000000000000000000000000000000000073ffffffffffffffffffffffffffffffffffffffff163373ffffffffffffffffffffffffffffffffffffffff1614612a15576040517f08c379a000000000000000000000000000000000000000000000000000000000815260040180806020018281038252601f8152602001807f4f6e6c7920565246436f6f7264696e61746f722063616e2066756c66696c6c0081525060200191505060405180910390fd5b612a1f828261465a565b5050565b606060078054600181600116156101000203166002900480601f016020809104026020016040519081016040528092919081815260200182805460018160011615610100020316600290048015612abb5780601f10612a9057610100808354040283529160200191612abb565b820191906000526020600020905b815481529060010190602001808311612a9e57829003601f168201915b5050505050905090565b6060806060600060608060606000612adb612841565b6305f5e10060128b81548110612aed57fe5b9060005260206000209060070201600301540281612b0757fe5b05905060128981548110612b1757fe5b906000526020600020906007020160020160128a81548110612b3557fe5b906000526020600020906007020160000160128b81548110612b5357fe5b90600052602060002090600702016001018360128d81548110612b7257fe5b906000526020600020906007020160040160128e81548110612b9057fe5b906000526020600020906007020160050160128f81548110612bae57fe5b9060005260206000209060070201600601868054600181600116156101000203166002900480601f016020809104026020016040519081016040528092919081815260200182805460018160011615610100020316600290048015612c545780601f10612c2957610100808354040283529160200191612c54565b820191906000526020600020905b815481529060010190602001808311612c3757829003601f168201915b50505050509650858054600181600116156101000203166002900480601f016020809104026020016040519081016040528092919081815260200182805460018160011615610100020316600290048015612cf05780601f10612cc557610100808354040283529160200191612cf0565b820191906000526020600020905b815481529060010190602001808311612cd357829003601f168201915b50505050509550848054600181600116156101000203166002900480601f016020809104026020016040519081016040528092919081815260200182805460018160011615610100020316600290048015612d8c5780601f10612d6157610100808354040283529160200191612d8c565b820191906000526020600020905b815481529060010190602001808311612d6f57829003601f168201915b50505050509450828054600181600116156101000203166002900480601f016020809104026020016040519081016040528092919081815260200182805460018160011615610100020316600290048015612e285780601f10612dfd57610100808354040283529160200191612e28565b820191906000526020600020905b815481529060010190602001808311612e0b57829003601f168201915b50505050509250818054600181600116156101000203166002900480601f016020809104026020016040519081016040528092919081815260200182805460018160011615610100020316600290048015612ec45780601f10612e9957610100808354040283529160200191612ec4565b820191906000526020600020905b815481529060010190602001808311612ea757829003601f168201915b50505050509150808054600181600116156101000203166002900480601f016020809104026020016040519081016040528092919081815260200182805460018160011615610100020316600290048015612f605780601f10612f3557610100808354040283529160200191612f60565b820191906000526020600020905b815481529060010190602001808311612f4357829003601f168201915b50505050509050975097509750975097509750975050919395979092949650565b6011602052806000526040600020600091509050806000018054600181600116156101000203166002900480601f01602080910402602001604051908101604052809291908181526020018280546001816001161561010002031660029004801561302d5780601f106130025761010080835404028352916020019161302d565b820191906000526020600020905b81548152906001019060200180831161301057829003601f168201915b505050505090806001018054600181600116156101000203166002900480601f0160208091040260200160405190810160405280929190818152602001828054600181600116156101000203166002900480156130cb5780601f106130a0576101008083540402835291602001916130cb565b820191906000526020600020905b8154815290600101906020018083116130ae57829003601f168201915b505050505090806002018054600181600116156101000203166002900480601f0160208091040260200160405190810160405280929190818152602001828054600181600116156101000203166002900480156131695780601f1061313e57610100808354040283529160200191613169565b820191906000526020600020905b81548152906001019060200180831161314c57829003601f168201915b505050505090806003018054600181600116156101000203166002900480601f0160208091040260200160405190810160405280929190818152602001828054600181600116156101000203166002900480156132075780601f106131dc57610100808354040283529160200191613207565b820191906000526020600020905b8154815290600101906020018083116131ea57829003601f168201915b505050505090806004018054600181600116156101000203166002900480601f0160208091040260200160405190810160405280929190818152602001828054600181600116156101000203166002900480156132a55780601f1061327a576101008083540402835291602001916132a5565b820191906000526020600020905b81548152906001019060200180831161328857829003601f168201915b505050505090806005018054600181600116156101000203166002900480601f0160208091040260200160405190810160405280929190818152602001828054600181600116156101000203166002900480156133435780601f1061331857610100808354040283529160200191613343565b820191906000526020600020905b81548152906001019060200180831161332657829003601f168201915b505050505090806006018054600181600116156101000203166002900480601f0160208091040260200160405190810160405280929190818152602001828054600181600116156101000203166002900480156133e15780601f106133b6576101008083540402835291602001916133e1565b820191906000526020600020905b8154815290600101906020018083116133c457829003601f168201915b5050505050905087565b6133f3614128565b73ffffffffffffffffffffffffffffffffffffffff168273ffffffffffffffffffffffffffffffffffffffff161415613494576040517f08c379a00000000000000000000000000000000000000000000000000000000081526004018080602001828103825260198152602001807f4552433732313a20617070726f766520746f2063616c6c65720000000000000081525060200191505060405180910390fd5b80600560006134a1614128565b73ffffffffffffffffffffffffffffffffffffffff1673ffffffffffffffffffffffffffffffffffffffff16815260200190815260200160002060008473ffffffffffffffffffffffffffffffffffffffff1673ffffffffffffffffffffffffffffffffffffffff16815260200190815260200160002060006101000a81548160ff0219169083151502179055508173ffffffffffffffffffffffffffffffffffffffff1661354e614128565b73ffffffffffffffffffffffffffffffffffffffff167f17307eab39ab6107e8899845ad3d59bd9653f200f220920489ca2b5937696c3183604051808215151515815260200191505060405180910390a35050565b601460009054906101000a900473ffffffffffffffffffffffffffffffffffffffff1681565b6135da6135d4614128565b836141e9565b61362f576040517f08c379a00000000000000000000000000000000000000000000000000000000081526004018080602001828103825260318152602001806158116031913960400191505060405180910390fd5b61363b84848484614681565b50505050565b606061364c8261410b565b6136a1576040517f08c379a000000000000000000000000000000000000000000000000000000000815260040180806020018281038252602f8152602001806157c1602f913960400191505060405180910390fd5b6060600860008481526020019081526020016000208054600181600116156101000203166002900480601f01602080910402602001604051908101604052809291908181526020018280546001816001161561010002031660029004801561374a5780601f1061371f5761010080835404028352916020019161374a565b820191906000526020600020905b81548152906001019060200180831161372d57829003601f168201915b50505050509050606061375b612527565b905060008151141561377157819250505061390d565b6000825111156138425780826040516020018083805190602001908083835b602083106137b35780518252602082019150602081019050602083039250613790565b6001836020036101000a03801982511681845116808217855250505050505090500182805190602001908083835b6020831061380457805182526020820191506020810190506020830392506137e1565b6001836020036101000a038019825116818451168082178552505050505050905001925050506040516020818303038152906040529250505061390d565b8061384c856146f3565b6040516020018083805190602001908083835b60208310613882578051825260208201915060208101905060208303925061385f565b6001836020036101000a03801982511681845116808217855250505050505090500182805190602001908083835b602083106138d357805182526020820191506020810190506020830392506138b0565b6001836020036101000a03801982511681845116808217855250505050505090500192505050604051602081830303815290604052925050505b919050565b6000601280549050905090565b6000600560008473ffffffffffffffffffffffffffffffffffffffff1673ffffffffffffffffffffffffffffffffffffffff16815260200190815260200160002060008373ffffffffffffffffffffffffffffffffffffffff1673ffffffffffffffffffffffffffffffffffffffff16815260200190815260200160002060009054906101000a900460ff16905092915050565b6139c46139be614128565b896141e9565b613a19576040517f08c379a00000000000000000000000000000000000000000000000000000000081526004018080602001828103825260438152602001806156fd6043913960600191505060405180910390fd5b6040518060e0016040528088815260200187815260200186815260200185815260200184815260200183815260200182815250601160008a81526020019081526020016000206000820151816000019080519060200190613a7b9291906154ba565b506020820151816001019080519060200190613a989291906154ba565b506040820151816002019080519060200190613ab59291906154ba565b506060820151816003019080519060200190613ad29291906154ba565b506080820151816004019080519060200190613aef9291906154ba565b5060a0820151816005019080519060200190613b0c9291906154ba565b5060c0820151816006019080519060200190613b299291906154ba565b509050505050505050505050565b613b3f614128565b73ffffffffffffffffffffffffffffffffffffffff16613b5d61292a565b73ffffffffffffffffffffffffffffffffffffffff1614613be6576040517f08c379a00000000000000000000000000000000000000000000000000000000081526004018080602001828103825260208152602001807f4f776e61626c653a2063616c6c6572206973206e6f7420746865206f776e657281525060200191505060405180910390fd5b600073ffffffffffffffffffffffffffffffffffffffff168173ffffffffffffffffffffffffffffffffffffffff161415613c6c576040517f08c379a00000000000000000000000000000000000000000000000000000000081526004018080602001828103825260268152602001806155b46026913960400191505060405180910390fd5b8073ffffffffffffffffffffffffffffffffffffffff16600b60009054906101000a900473ffffffffffffffffffffffffffffffffffffffff1673ffffffffffffffffffffffffffffffffffffffff167f8be0079c531659141344cd1fd0a4f28419497f9722a3daafe3b4186f6b6457e060405160405180910390a380600b60006101000a81548173ffffffffffffffffffffffffffffffffffffffff021916908373ffffffffffffffffffffffffffffffffffffffff16021790555050565b60128181548110613d3957fe5b9060005260206000209060070201600091509050806000018054600181600116156101000203166002900480601f016020809104026020016040519081016040528092919081815260200182805460018160011615610100020316600290048015613de55780601f10613dba57610100808354040283529160200191613de5565b820191906000526020600020905b815481529060010190602001808311613dc857829003601f168201915b505050505090806001018054600181600116156101000203166002900480601f016020809104026020016040519081016040528092919081815260200182805460018160011615610100020316600290048015613e835780601f10613e5857610100808354040283529160200191613e83565b820191906000526020600020905b815481529060010190602001808311613e6657829003601f168201915b505050505090806002018054600181600116156101000203166002900480601f016020809104026020016040519081016040528092919081815260200182805460018160011615610100020316600290048015613f215780601f10613ef657610100808354040283529160200191613f21565b820191906000526020600020905b815481529060010190602001808311613f0457829003601f168201915b505050505090806003015490806004018054600181600116156101000203166002900480601f016020809104026020016040519081016040528092919081815260200182805460018160011615610100020316600290048015613fc55780601f10613f9a57610100808354040283529160200191613fc5565b820191906000526020600020905b815481529060010190602001808311613fa857829003601f168201915b505050505090806005018054600181600116156101000203166002900480601f0160208091040260200160405190810160405280929190818152602001828054600181600116156101000203166002900480156140635780601f1061403857610100808354040283529160200191614063565b820191906000526020600020905b81548152906001019060200180831161404657829003601f168201915b505050505090806006018054600181600116156101000203166002900480601f0160208091040260200160405190810160405280929190818152602001828054600181600116156101000203166002900480156141015780601f106140d657610100808354040283529160200191614101565b820191906000526020600020905b8154815290600101906020018083116140e457829003601f168201915b5050505050905087565b600061412182600261483a90919063ffffffff16565b9050919050565b600033905090565b816004600083815260200190815260200160002060006101000a81548173ffffffffffffffffffffffffffffffffffffffff021916908373ffffffffffffffffffffffffffffffffffffffff160217905550808273ffffffffffffffffffffffffffffffffffffffff166141a3836124f0565b73ffffffffffffffffffffffffffffffffffffffff167f8c5be1e5ebec7d5bd14f71427d1e84f3dd0314c0f7b2291e5b200ac8c7c3b92560405160405180910390a45050565b60006141f48261410b565b614249576040517f08c379a000000000000000000000000000000000000000000000000000000000815260040180806020018281038252602c815260200180615624602c913960400191505060405180910390fd5b6000614254836124f0565b90508073ffffffffffffffffffffffffffffffffffffffff168473ffffffffffffffffffffffffffffffffffffffff1614806142c357508373ffffffffffffffffffffffffffffffffffffffff166142ab84611f17565b73ffffffffffffffffffffffffffffffffffffffff16145b806142d457506142d3818561391f565b5b91505092915050565b6142e68261410b565b61433b576040517f08c379a000000000000000000000000000000000000000000000000000000000815260040180806020018281038252602c81526020018061576c602c913960400191505060405180910390fd5b806008600084815260200190815260200160002090805190602001906143629291906154ba565b505050565b600061437582600001614854565b9050919050565b8273ffffffffffffffffffffffffffffffffffffffff1661439c826124f0565b73ffffffffffffffffffffffffffffffffffffffff1614614408576040517f08c379a00000000000000000000000000000000000000000000000000000000081526004018080602001828103825260298152602001806157986029913960400191505060405180910390fd5b600073ffffffffffffffffffffffffffffffffffffffff168273ffffffffffffffffffffffffffffffffffffffff16141561448e576040517f08c379a00000000000000000000000000000000000000000000000000000000081526004018080602001828103825260248152602001806155da6024913960400191505060405180910390fd5b614499838383614865565b6144a4600082614130565b6144f581600160008673ffffffffffffffffffffffffffffffffffffffff1673ffffffffffffffffffffffffffffffffffffffff16815260200190815260200160002061486a90919063ffffffff16565b5061454781600160008573ffffffffffffffffffffffffffffffffffffffff1673ffffffffffffffffffffffffffffffffffffffff16815260200190815260200160002061488490919063ffffffff16565b5061455e8183600261489e9092919063ffffffff16565b50808273ffffffffffffffffffffffffffffffffffffffff168473ffffffffffffffffffffffffffffffffffffffff167fddf252ad1be2c89b69c2b068fc378daa952ba7f163c4a11628f55a4df523b3ef60405160405180910390a4505050565b60006145ce83600001836148d3565b60001c905092915050565b6145f3828260405180602001604052806000815250614956565b5050565b60008060008061460a86600001866149c7565b915091508160001c8160001c8090509350935050509250929050565b6000614639846000018460001b84614a60565b60001c90509392505050565b600061465382600001614b56565b9050919050565b6000620186a0828161466857fe5b0690506000612710838161467857fe5b06905050505050565b61468c84848461437c565b61469884848484614b67565b6146ed576040517f08c379a00000000000000000000000000000000000000000000000000000000081526004018080602001828103825260328152602001806155826032913960400191505060405180910390fd5b50505050565b6060600082141561473b576040518060400160405280600181526020017f30000000000000000000000000000000000000000000000000000000000000008152509050614835565b600082905060005b60008214614765578080600101915050600a828161475d57fe5b049150614743565b60608167ffffffffffffffff8111801561477e57600080fd5b506040519080825280601f01601f1916602001820160405280156147b15781602001600182028036833780820191505090505b50905060006001830390508593505b6000841461482d57600a84816147d257fe5b0660300160f81b828280600190039350815181106147ec57fe5b60200101907effffffffffffffffffffffffffffffffffffffffffffffffffffffffffffff1916908160001a905350600a848161482557fe5b0493506147c0565b819450505050505b919050565b600061484c836000018360001b614dac565b905092915050565b600081600001805490509050919050565b505050565b600061487c836000018360001b614dcf565b905092915050565b6000614896836000018360001b614eb7565b905092915050565b60006148ca846000018460001b8473ffffffffffffffffffffffffffffffffffffffff1660001b614f27565b90509392505050565b600081836000018054905011614934576040517f08c379a00000000000000000000000000000000000000000000000000000000081526004018080602001828103825260228152602001806155606022913960400191505060405180910390fd5b82600001828154811061494357fe5b9060005260206000200154905092915050565b6149608383615003565b61496d6000848484614b67565b6149c2576040517f08c379a00000000000000000000000000000000000000000000000000000000081526004018080602001828103825260328152602001806155826032913960400191505060405180910390fd5b505050565b60008082846000018054905011614a29576040517f08c379a00000000000000000000000000000000000000000000000000000000081526004018080602001828103825260228152602001806156db6022913960400191505060405180910390fd5b6000846000018481548110614a3a57fe5b906000526020600020906002020190508060000154816001015492509250509250929050565b60008084600101600085815260200190815260200160002054905060008114158390614b27576040517f08c379a00000000000000000000000000000000000000000000000000000000081526004018080602001828103825283818151815260200191508051906020019080838360005b83811015614aec578082015181840152602081019050614ad1565b50505050905090810190601f168015614b195780820380516001836020036101000a031916815260200191505b509250505060405180910390fd5b50846000016001820381548110614b3a57fe5b9060005260206000209060020201600101549150509392505050565b600081600001805490509050919050565b6000614b888473ffffffffffffffffffffffffffffffffffffffff166151f7565b614b955760019050614da4565b6060614d2b63150b7a0260e01b614baa614128565b888787604051602401808573ffffffffffffffffffffffffffffffffffffffff1673ffffffffffffffffffffffffffffffffffffffff1681526020018473ffffffffffffffffffffffffffffffffffffffff1673ffffffffffffffffffffffffffffffffffffffff16815260200183815260200180602001828103825283818151815260200191508051906020019080838360005b83811015614c5a578082015181840152602081019050614c3f565b50505050905090810190601f168015614c875780820380516001836020036101000a031916815260200191505b5095505050505050604051602081830303815290604052907bffffffffffffffffffffffffffffffffffffffffffffffffffffffff19166020820180517bffffffffffffffffffffffffffffffffffffffffffffffffffffffff8381831617835250505050604051806060016040528060328152602001615582603291398773ffffffffffffffffffffffffffffffffffffffff1661520a9092919063ffffffff16565b90506000818060200190516020811015614d4457600080fd5b8101908080519060200190929190505050905063150b7a0260e01b7bffffffffffffffffffffffffffffffffffffffffffffffffffffffff1916817bffffffffffffffffffffffffffffffffffffffffffffffffffffffff191614925050505b949350505050565b600080836001016000848152602001908152602001600020541415905092915050565b60008083600101600084815260200190815260200160002054905060008114614eab5760006001820390506000600186600001805490500390506000866000018281548110614e1a57fe5b9060005260206000200154905080876000018481548110614e3757fe5b9060005260206000200181905550600183018760010160008381526020019081526020016000208190555086600001805480614e6f57fe5b60019003818190600052602060002001600090559055866001016000878152602001908152602001600020600090556001945050505050614eb1565b60009150505b92915050565b6000614ec38383615222565b614f1c578260000182908060018154018082558091505060019003906000526020600020016000909190919091505582600001805490508360010160008481526020019081526020016000208190555060019050614f21565b600090505b92915050565b6000808460010160008581526020019081526020016000205490506000811415614fce57846000016040518060400160405280868152602001858152509080600181540180825580915050600190039060005260206000209060020201600090919091909150600082015181600001556020820151816001015550508460000180549050856001016000868152602001908152602001600020819055506001915050614ffc565b82856000016001830381548110614fe157fe5b90600052602060002090600202016001018190555060009150505b9392505050565b600073ffffffffffffffffffffffffffffffffffffffff168273ffffffffffffffffffffffffffffffffffffffff1614156150a6576040517f08c379a00000000000000000000000000000000000000000000000000000000081526004018080602001828103825260208152602001807f4552433732313a206d696e7420746f20746865207a65726f206164647265737381525060200191505060405180910390fd5b6150af8161410b565b15615122576040517f08c379a000000000000000000000000000000000000000000000000000000000815260040180806020018281038252601c8152602001807f4552433732313a20746f6b656e20616c7265616479206d696e7465640000000081525060200191505060405180910390fd5b61512e60008383614865565b61517f81600160008573ffffffffffffffffffffffffffffffffffffffff1673ffffffffffffffffffffffffffffffffffffffff16815260200190815260200160002061488490919063ffffffff16565b506151968183600261489e9092919063ffffffff16565b50808273ffffffffffffffffffffffffffffffffffffffff16600073ffffffffffffffffffffffffffffffffffffffff167fddf252ad1be2c89b69c2b068fc378daa952ba7f163c4a11628f55a4df523b3ef60405160405180910390a45050565b600080823b905060008111915050919050565b60606152198484600085615245565b90509392505050565b600080836001016000848152602001908152602001600020541415905092915050565b6060824710156152a0576040517f08c379a00000000000000000000000000000000000000000000000000000000081526004018080602001828103825260268152602001806155fe6026913960400191505060405180910390fd5b6152a9856151f7565b61531b576040517f08c379a000000000000000000000000000000000000000000000000000000000815260040180806020018281038252601d8152602001807f416464726573733a2063616c6c20746f206e6f6e2d636f6e747261637400000081525060200191505060405180910390fd5b600060608673ffffffffffffffffffffffffffffffffffffffff1685876040518082805190602001908083835b6020831061536b5780518252602082019150602081019050602083039250615348565b6001836020036101000a03801982511681845116808217855250505050505090500191505060006040518083038185875af1925050503d80600081146153cd576040519150601f19603f3d011682016040523d82523d6000602084013e6153d2565b606091505b50915091506153e28282866153ee565b92505050949350505050565b606083156153fe578290506154b3565b6000835111156154115782518084602001fd5b816040517f08c379a00000000000000000000000000000000000000000000000000000000081526004018080602001828103825283818151815260200191508051906020019080838360005b8381101561547857808201518184015260208101905061545d565b50505050905090810190601f1680156154a55780820380516001836020036101000a031916815260200191505b509250505060405180910390fd5b9392505050565b828054600181600116156101000203166002900490600052602060002090601f016020900481019282601f106154fb57805160ff1916838001178555615529565b82800160010185558215615529579182015b8281111561552857825182559160200191906001019061550d565b5b509050615536919061553a565b5090565b61555c91905b80821115615558576000816000905550600101615540565b5090565b9056fe456e756d657261626c655365743a20696e646578206f7574206f6620626f756e64734552433732313a207472616e7366657220746f206e6f6e20455243373231526563656976657220696d706c656d656e7465724f776e61626c653a206e6577206f776e657220697320746865207a65726f20616464726573734552433732313a207472616e7366657220746f20746865207a65726f2061646472657373416464726573733a20696e73756666696369656e742062616c616e636520666f722063616c6c4552433732313a206f70657261746f7220717565727920666f72206e6f6e6578697374656e7420746f6b656e4552433732313a20617070726f76652063616c6c6572206973206e6f74206f776e6572206e6f7220617070726f76656420666f7220616c6c4552433732313a2062616c616e636520717565727920666f7220746865207a65726f20616464726573734552433732313a206f776e657220717565727920666f72206e6f6e6578697374656e7420746f6b656e456e756d657261626c654d61703a20696e646578206f7574206f6620626f756e64734552433732313a20757064617465546f6b656e50726f706572747944657461696c732063616c6c6572206973206e6f74206f776e6572206e6f7220617070726f7665644552433732313a20617070726f76656420717565727920666f72206e6f6e6578697374656e7420746f6b656e4552433732314d657461646174613a2055524920736574206f66206e6f6e6578697374656e7420746f6b656e4552433732313a207472616e73666572206f6620746f6b656e2074686174206973206e6f74206f776e4552433732314d657461646174613a2055524920717565727920666f72206e6f6e6578697374656e7420746f6b656e4552433732313a20617070726f76616c20746f2063757272656e74206f776e65724552433732313a207472616e736665722063616c6c6572206973206e6f74206f776e6572206e6f7220617070726f766564a264697066735822122037a86e18aa9486d62da8bae8d8e84d15bfe08e5db3a0a1133ad3fea7e0d7713564736f6c63430006060033",
  "immutableReferences": {
    "468": [
      {
        "length": 32,
        "start": 10582
      }
    ]
  },
  "source": "pragma solidity ^0.6.0;\n\nimport \"@openzeppelin/contracts/token/ERC721/ERC721.sol\";\nimport \"@openzeppelin/contracts/utils/Counters.sol\";\nimport \"@chainlink/contracts/src/v0.6/VRFConsumerBase.sol\";\nimport \"./PropertyNFT.sol\";\nimport \"@chainlink/contracts/src/v0.6/interfaces/AggregatorV3Interface.sol\";\n\ncontract RealEstateNFT is PropertyNFT {\n    AggregatorV3Interface internal priceFeed;\n    struct Property {\n        string landDescription;\n        string propertyAddress;\n        string name;\n//        string activeLease; // TODO add automatic updates for activeLease property\n        int estimatedPropertyValue; // TODO integrate with api to automatically update estimated property value\n        string schoolZoning; // TODO integrate with a school zoning api?\n        string buildingPermits;\n        string municipality;\n//        string boundaries;\n//        string floorplans;\n//        string easements;\n    }\n    struct PropertyDetails {\n        string schoolZoning; // TODO integrate with a school zoning api?\n        string buildingPermits;\n        string caveats;\n        string municipality;\n        string environmentTitle;\n        string leasingAndMiningRights;\n        string geographyAndTopology;\n    }\n    mapping(uint256 => string) public tokenIdToActiveLease;\n    mapping(uint256 => PropertyDetails) public tokenIdToPropertyDetails;\n    Property[] public properties;\n\n    bytes32 internal keyHash;\n    address public vrfCoordinator;\n    uint256 internal fee;\n    constructor(address _VRFCoordinator, address _LinkToken, bytes32 _keyHash)\n    ERC721(\"RealEstateNFT\", \"RET\")\n    VRFConsumerBase(_VRFCoordinator, _LinkToken)\n    public {\n        keyHash = _keyHash;\n        vrfCoordinator = _VRFCoordinator;\n        fee = 1.5*10**18; // 1.5 LINK\n        /**\n         * Network: Rinkeby\n         * Aggregator: ETH/USD\n         * Address: 0x8A753747A1Fa494EC906cE90E9f37563A8AF630e\n         */\n        priceFeed = AggregatorV3Interface(0x8A753747A1Fa494EC906cE90E9f37563A8AF630e);\n    }\n    function getThePrice() public view returns (int) {\n        (\n        uint80 roundID,\n        int price,\n        uint startedAt,\n        uint timeStamp,\n        uint80 answeredInRound\n        ) = priceFeed.latestRoundData();\n        return price;\n    }\n    function getNumberOfProperties() public view returns (uint256) {\n        return properties.length;\n    }\n    function getPropertyMetadata(uint256 tokenId)\n    public\n    view\n    returns (\n        string memory,\n        string memory,\n        string memory,\n        int,\n        string memory,\n        string memory,\n        string memory\n    )\n    {\n\n\n        int priceInETH = ((properties[tokenId].estimatedPropertyValue * 100000000 )/ getThePrice()) ;\n        return (\n            properties[tokenId].name,\n            properties[tokenId].landDescription,\n            properties[tokenId].propertyAddress,\n            priceInETH,\n            properties[tokenId].schoolZoning,\n            properties[tokenId].buildingPermits,\n            properties[tokenId].municipality\n        );\n    }\n\n    function updateTokenPropertyDetails(\n        uint256 tokenId,\n        string memory schoolZoning,\n        string memory buildingPermits,\n        string memory caveats,\n        string memory municipality,\n        string memory environmentTitle,\n        string memory leasingAndMiningRights,\n        string memory geographyAndTopology\n    ) public {\n        require(\n            _isApprovedOrOwner(_msgSender(), tokenId), \"ERC721: updateTokenPropertyDetails caller is not owner nor approved\"\n        );\n        tokenIdToPropertyDetails[tokenId] = PropertyDetails({\n            schoolZoning: schoolZoning,\n            buildingPermits: buildingPermits,\n            caveats: caveats,\n            municipality: municipality,\n            environmentTitle: environmentTitle,\n            leasingAndMiningRights: leasingAndMiningRights,\n            geographyAndTopology: geographyAndTopology\n        });\n    }\n    function requestToMintNewRealEstateToken(\n        string memory name,\n        int estimatedPropertyValue,\n        string memory description,\n        string memory propertyAddress,\n        string memory activeLease,\n        string memory schoolZoning,\n        string memory buildingPermits,\n        string memory municipality\n    ) public {\n        uint256 newId = properties.length;\n        tokenIdToActiveLease[newId] = activeLease;\n\n        properties.push(\n            Property({\n                landDescription: description,\n                propertyAddress: propertyAddress,\n                estimatedPropertyValue: estimatedPropertyValue,\n                name: name,\n                schoolZoning: schoolZoning,\n                municipality: municipality,\n                buildingPermits: buildingPermits\n            })\n        );\n        tokenIdToOwner[newId] = msg.sender;\n        _safeMint(msg.sender, newId);\n    }\n\n    function fulfillRandomness(bytes32 requestId, uint256 randomNumber) internal override {\n        // leaving here in case we want to use randomness, but currently not doing anything\n        uint256 randomLatitude = (randomNumber % 100000);\n        uint256 randomLongitude = (randomNumber % 10000);\n    }\n\n    function setTokenURI(uint256 tokenId, string memory _tokenURI) public {\n        require(\n            _isApprovedOrOwner(_msgSender(), tokenId), \"ERC721: transfer caller is not owner nor approved\"\n        );\n        _setTokenURI(tokenId, _tokenURI);\n    }\n}",
  "sourcePath": "/Users/lilian/Desktop/CryptoProj/RealEstateRoyalties/src/contracts/RealEstateNFT.sol",
  "compiler": {
    "name": "solc",
    "version": "0.6.6+commit.6c089d02.Emscripten.clang"
  },
  "schemaVersion": "3.3.4",
  "updatedAt": "2021-04-11T18:28:50.572Z",
  "networkType": "ethereum",
  "devdoc": {
    "methods": {
      "approve(address,uint256)": {
        "details": "See {IERC721-approve}."
      },
      "balanceOf(address)": {
        "details": "See {IERC721-balanceOf}."
      },
      "baseURI()": {
        "details": "Returns the base URI set via {_setBaseURI}. This will be automatically added as a prefix in {tokenURI} to each token's URI, or to the token ID if no specific URI is set for that token ID."
      },
      "getApproved(uint256)": {
        "details": "See {IERC721-getApproved}."
      },
      "isApprovedForAll(address,address)": {
        "details": "See {IERC721-isApprovedForAll}."
      },
      "name()": {
        "details": "See {IERC721Metadata-name}."
      },
      "owner()": {
        "details": "Returns the address of the current owner."
      },
      "ownerOf(uint256)": {
        "details": "See {IERC721-ownerOf}."
      },
      "renounceOwnership()": {
        "details": "Leaves the contract without owner. It will not be possible to call `onlyOwner` functions anymore. Can only be called by the current owner.     * NOTE: Renouncing ownership will leave the contract without an owner, thereby removing any functionality that is only available to the owner."
      },
      "safeTransferFrom(address,address,uint256)": {
        "details": "See {IERC721-safeTransferFrom}."
      },
      "safeTransferFrom(address,address,uint256,bytes)": {
        "details": "See {IERC721-safeTransferFrom}."
      },
      "setApprovalForAll(address,bool)": {
        "details": "See {IERC721-setApprovalForAll}."
      },
      "supportsInterface(bytes4)": {
        "details": "See {IERC165-supportsInterface}.     * Time complexity O(1), guaranteed to always use less than 30 000 gas."
      },
      "symbol()": {
        "details": "See {IERC721Metadata-symbol}."
      },
      "tokenByIndex(uint256)": {
        "details": "See {IERC721Enumerable-tokenByIndex}."
      },
      "tokenOfOwnerByIndex(address,uint256)": {
        "details": "See {IERC721Enumerable-tokenOfOwnerByIndex}."
      },
      "tokenURI(uint256)": {
        "details": "See {IERC721Metadata-tokenURI}."
      },
      "totalSupply()": {
        "details": "See {IERC721Enumerable-totalSupply}."
      },
      "transferFrom(address,address,uint256)": {
        "details": "See {IERC721-transferFrom}."
      },
      "transferOwnership(address)": {
        "details": "Transfers ownership of the contract to a new account (`newOwner`). Can only be called by the current owner."
      }
    }
  },
  "userdoc": {
    "methods": {}
  }
}