{
  "contractName": "RealEstateNFT",
  "abi": [
    {
      "inputs": [
        {
          "internalType": "address",
          "name": "_VRFCoordinator",
          "type": "address"
        },
        {
          "internalType": "address",
          "name": "_LinkToken",
          "type": "address"
        },
        {
          "internalType": "bytes32",
          "name": "_keyHash",
          "type": "bytes32"
        }
      ],
      "stateMutability": "nonpayable",
      "type": "constructor"
    },
    {
      "anonymous": false,
      "inputs": [
        {
          "indexed": true,
          "internalType": "address",
          "name": "owner",
          "type": "address"
        },
        {
          "indexed": true,
          "internalType": "address",
          "name": "approved",
          "type": "address"
        },
        {
          "indexed": true,
          "internalType": "uint256",
          "name": "tokenId",
          "type": "uint256"
        }
      ],
      "name": "Approval",
      "type": "event"
    },
    {
      "anonymous": false,
      "inputs": [
        {
          "indexed": true,
          "internalType": "address",
          "name": "owner",
          "type": "address"
        },
        {
          "indexed": true,
          "internalType": "address",
          "name": "operator",
          "type": "address"
        },
        {
          "indexed": false,
          "internalType": "bool",
          "name": "approved",
          "type": "bool"
        }
      ],
      "name": "ApprovalForAll",
      "type": "event"
    },
    {
      "anonymous": false,
      "inputs": [
        {
          "indexed": true,
          "internalType": "address",
          "name": "from",
          "type": "address"
        },
        {
          "indexed": true,
          "internalType": "address",
          "name": "to",
          "type": "address"
        },
        {
          "indexed": true,
          "internalType": "uint256",
          "name": "tokenId",
          "type": "uint256"
        }
      ],
      "name": "Transfer",
      "type": "event"
    },
    {
      "inputs": [
        {
          "internalType": "address",
          "name": "to",
          "type": "address"
        },
        {
          "internalType": "uint256",
          "name": "tokenId",
          "type": "uint256"
        }
      ],
      "name": "approve",
      "outputs": [],
      "stateMutability": "nonpayable",
      "type": "function"
    },
    {
      "inputs": [
        {
          "internalType": "address",
          "name": "owner",
          "type": "address"
        }
      ],
      "name": "balanceOf",
      "outputs": [
        {
          "internalType": "uint256",
          "name": "",
          "type": "uint256"
        }
      ],
      "stateMutability": "view",
      "type": "function"
    },
    {
      "inputs": [],
      "name": "baseURI",
      "outputs": [
        {
          "internalType": "string",
          "name": "",
          "type": "string"
        }
      ],
      "stateMutability": "view",
      "type": "function"
    },
    {
      "inputs": [
        {
          "internalType": "uint256",
          "name": "tokenId",
          "type": "uint256"
        }
      ],
      "name": "getApproved",
      "outputs": [
        {
          "internalType": "address",
          "name": "",
          "type": "address"
        }
      ],
      "stateMutability": "view",
      "type": "function"
    },
    {
      "inputs": [
        {
          "internalType": "address",
          "name": "owner",
          "type": "address"
        },
        {
          "internalType": "address",
          "name": "operator",
          "type": "address"
        }
      ],
      "name": "isApprovedForAll",
      "outputs": [
        {
          "internalType": "bool",
          "name": "",
          "type": "bool"
        }
      ],
      "stateMutability": "view",
      "type": "function"
    },
    {
      "inputs": [],
      "name": "name",
      "outputs": [
        {
          "internalType": "string",
          "name": "",
          "type": "string"
        }
      ],
      "stateMutability": "view",
      "type": "function"
    },
    {
      "inputs": [
        {
          "internalType": "uint256",
          "name": "tokenId",
          "type": "uint256"
        }
      ],
      "name": "ownerOf",
      "outputs": [
        {
          "internalType": "address",
          "name": "",
          "type": "address"
        }
      ],
      "stateMutability": "view",
      "type": "function"
    },
    {
      "inputs": [
        {
          "internalType": "bytes32",
          "name": "requestId",
          "type": "bytes32"
        },
        {
          "internalType": "uint256",
          "name": "randomness",
          "type": "uint256"
        }
      ],
      "name": "rawFulfillRandomness",
      "outputs": [],
      "stateMutability": "nonpayable",
      "type": "function"
    },
    {
      "inputs": [
        {
          "internalType": "address",
          "name": "from",
          "type": "address"
        },
        {
          "internalType": "address",
          "name": "to",
          "type": "address"
        },
        {
          "internalType": "uint256",
          "name": "tokenId",
          "type": "uint256"
        }
      ],
      "name": "safeTransferFrom",
      "outputs": [],
      "stateMutability": "nonpayable",
      "type": "function"
    },
    {
      "inputs": [
        {
          "internalType": "address",
          "name": "from",
          "type": "address"
        },
        {
          "internalType": "address",
          "name": "to",
          "type": "address"
        },
        {
          "internalType": "uint256",
          "name": "tokenId",
          "type": "uint256"
        },
        {
          "internalType": "bytes",
          "name": "_data",
          "type": "bytes"
        }
      ],
      "name": "safeTransferFrom",
      "outputs": [],
      "stateMutability": "nonpayable",
      "type": "function"
    },
    {
      "inputs": [
        {
          "internalType": "address",
          "name": "operator",
          "type": "address"
        },
        {
          "internalType": "bool",
          "name": "approved",
          "type": "bool"
        }
      ],
      "name": "setApprovalForAll",
      "outputs": [],
      "stateMutability": "nonpayable",
      "type": "function"
    },
    {
      "inputs": [
        {
          "internalType": "bytes4",
          "name": "interfaceId",
          "type": "bytes4"
        }
      ],
      "name": "supportsInterface",
      "outputs": [
        {
          "internalType": "bool",
          "name": "",
          "type": "bool"
        }
      ],
      "stateMutability": "view",
      "type": "function"
    },
    {
      "inputs": [],
      "name": "symbol",
      "outputs": [
        {
          "internalType": "string",
          "name": "",
          "type": "string"
        }
      ],
      "stateMutability": "view",
      "type": "function"
    },
    {
      "inputs": [
        {
          "internalType": "uint256",
          "name": "index",
          "type": "uint256"
        }
      ],
      "name": "tokenByIndex",
      "outputs": [
        {
          "internalType": "uint256",
          "name": "",
          "type": "uint256"
        }
      ],
      "stateMutability": "view",
      "type": "function"
    },
    {
      "inputs": [
        {
          "internalType": "address",
          "name": "owner",
          "type": "address"
        },
        {
          "internalType": "uint256",
          "name": "index",
          "type": "uint256"
        }
      ],
      "name": "tokenOfOwnerByIndex",
      "outputs": [
        {
          "internalType": "uint256",
          "name": "",
          "type": "uint256"
        }
      ],
      "stateMutability": "view",
      "type": "function"
    },
    {
      "inputs": [
        {
          "internalType": "uint256",
          "name": "tokenId",
          "type": "uint256"
        }
      ],
      "name": "tokenURI",
      "outputs": [
        {
          "internalType": "string",
          "name": "",
          "type": "string"
        }
      ],
      "stateMutability": "view",
      "type": "function"
    },
    {
      "inputs": [],
      "name": "totalSupply",
      "outputs": [
        {
          "internalType": "uint256",
          "name": "",
          "type": "uint256"
        }
      ],
      "stateMutability": "view",
      "type": "function"
    },
    {
      "inputs": [
        {
          "internalType": "address",
          "name": "from",
          "type": "address"
        },
        {
          "internalType": "address",
          "name": "to",
          "type": "address"
        },
        {
          "internalType": "uint256",
          "name": "tokenId",
          "type": "uint256"
        }
      ],
      "name": "transferFrom",
      "outputs": [],
      "stateMutability": "nonpayable",
      "type": "function"
    },
    {
      "inputs": [],
      "name": "vrfCoordinator",
      "outputs": [
        {
          "internalType": "address",
          "name": "",
          "type": "address"
        }
      ],
      "stateMutability": "view",
      "type": "function"
    },
    {
      "inputs": [
        {
          "internalType": "string",
          "name": "name",
          "type": "string"
        },
        {
          "internalType": "uint256",
          "name": "userProvidedSeed",
          "type": "uint256"
        }
      ],
      "name": "requestToMintNewRealEstateToken",
      "outputs": [
        {
          "internalType": "bytes32",
          "name": "",
          "type": "bytes32"
        }
      ],
      "stateMutability": "nonpayable",
      "type": "function"
    },
    {
      "inputs": [
        {
          "internalType": "uint256",
          "name": "tokenId",
          "type": "uint256"
        },
        {
          "internalType": "string",
          "name": "_tokenURI",
          "type": "string"
        }
      ],
      "name": "setTokenURI",
      "outputs": [],
      "stateMutability": "nonpayable",
      "type": "function"
    }
  ],
  "bytecode": "0x60c06040523480156200001157600080fd5b5060405162003af838038062003af8833981810160405260608110156200003757600080fd5b8101908080519060200190929190805190602001909291908051906020019092919050505082826040518060400160405280600d81526020017f5265616c4573746174654e4654000000000000000000000000000000000000008152506040518060400160405280600381526020017f5245540000000000000000000000000000000000000000000000000000000000815250620000e26301ffc9a760e01b6200022e60201b60201c565b8160069080519060200190620000fa92919062000337565b5080600790805190602001906200011392919062000337565b506200012c6380ac58cd60e01b6200022e60201b60201c565b62000144635b5e139f60e01b6200022e60201b60201c565b6200015c63780e9d6360e01b6200022e60201b60201c565b50508173ffffffffffffffffffffffffffffffffffffffff1660a08173ffffffffffffffffffffffffffffffffffffffff1660601b815250508073ffffffffffffffffffffffffffffffffffffffff1660808173ffffffffffffffffffffffffffffffffffffffff1660601b81525050505080600e8190555082600f60006101000a81548173ffffffffffffffffffffffffffffffffffffffff021916908373ffffffffffffffffffffffffffffffffffffffff16021790555067016345785d8a0000601081905550505050620003e6565b63ffffffff60e01b817bffffffffffffffffffffffffffffffffffffffffffffffffffffffff19161415620002cb576040517f08c379a000000000000000000000000000000000000000000000000000000000815260040180806020018281038252601c8152602001807f4552433136353a20696e76616c696420696e746572666163652069640000000081525060200191505060405180910390fd5b6001600080837bffffffffffffffffffffffffffffffffffffffffffffffffffffffff19167bffffffffffffffffffffffffffffffffffffffffffffffffffffffff1916815260200190815260200160002060006101000a81548160ff02191690831515021790555050565b828054600181600116156101000203166002900490600052602060002090601f016020900481019282601f106200037a57805160ff1916838001178555620003ab565b82800160010185558215620003ab579182015b82811115620003aa5782518255916020019190600101906200038d565b5b509050620003ba9190620003be565b5090565b620003e391905b80821115620003df576000816000905550600101620003c5565b5090565b90565b60805160601c60a05160601c6136e3620004156000398061111352806123385250806122fc52506136e36000f3fe608060405234801561001057600080fd5b50600436106101375760003560e01c80636352211e116100b8578063a22cb4651161007c578063a22cb46514610747578063a3e56fa814610797578063b88d4fde146107e1578063c87b56dd146108e6578063ca24d92f1461098d578063e985e9c514610a6657610137565b80636352211e146105435780636c0360eb146105b157806370a082311461063457806394985ddd1461068c57806395d89b41146106c457610137565b806318160ddd116100ff57806318160ddd146103a557806323b872dd146103c35780632f745c591461043157806342842e0e146104935780634f6ccce71461050157610137565b806301ffc9a71461013c57806306fdde03146101a1578063081812fc14610224578063095ea7b314610292578063162094c4146102e0575b600080fd5b6101876004803603602081101561015257600080fd5b8101908080357bffffffffffffffffffffffffffffffffffffffffffffffffffffffff19169060200190929190505050610ae2565b604051808215151515815260200191505060405180910390f35b6101a9610b49565b6040518080602001828103825283818151815260200191508051906020019080838360005b838110156101e95780820151818401526020810190506101ce565b50505050905090810190601f1680156102165780820380516001836020036101000a031916815260200191505b509250505060405180910390f35b6102506004803603602081101561023a57600080fd5b8101908080359060200190929190505050610beb565b604051808273ffffffffffffffffffffffffffffffffffffffff1673ffffffffffffffffffffffffffffffffffffffff16815260200191505060405180910390f35b6102de600480360360408110156102a857600080fd5b81019080803573ffffffffffffffffffffffffffffffffffffffff16906020019092919080359060200190929190505050610c86565b005b6103a3600480360360408110156102f657600080fd5b81019080803590602001909291908035906020019064010000000081111561031d57600080fd5b82018360208201111561032f57600080fd5b8035906020019184600183028401116401000000008311171561035157600080fd5b91908080601f016020809104026020016040519081016040528093929190818152602001838380828437600081840152601f19601f820116905080830192505050505050509192919290505050610dca565b005b6103ad610e3e565b6040518082815260200191505060405180910390f35b61042f600480360360608110156103d957600080fd5b81019080803573ffffffffffffffffffffffffffffffffffffffff169060200190929190803573ffffffffffffffffffffffffffffffffffffffff16906020019092919080359060200190929190505050610e4f565b005b61047d6004803603604081101561044757600080fd5b81019080803573ffffffffffffffffffffffffffffffffffffffff16906020019092919080359060200190929190505050610ec5565b6040518082815260200191505060405180910390f35b6104ff600480360360608110156104a957600080fd5b81019080803573ffffffffffffffffffffffffffffffffffffffff169060200190929190803573ffffffffffffffffffffffffffffffffffffffff16906020019092919080359060200190929190505050610f20565b005b61052d6004803603602081101561051757600080fd5b8101908080359060200190929190505050610f40565b6040518082815260200191505060405180910390f35b61056f6004803603602081101561055957600080fd5b8101908080359060200190929190505050610f63565b604051808273ffffffffffffffffffffffffffffffffffffffff1673ffffffffffffffffffffffffffffffffffffffff16815260200191505060405180910390f35b6105b9610f9a565b6040518080602001828103825283818151815260200191508051906020019080838360005b838110156105f95780820151818401526020810190506105de565b50505050905090810190601f1680156106265780820380516001836020036101000a031916815260200191505b509250505060405180910390f35b6106766004803603602081101561064a57600080fd5b81019080803573ffffffffffffffffffffffffffffffffffffffff16906020019092919050505061103c565b6040518082815260200191505060405180910390f35b6106c2600480360360408110156106a257600080fd5b810190808035906020019092919080359060200190929190505050611111565b005b6106cc6111e0565b6040518080602001828103825283818151815260200191508051906020019080838360005b8381101561070c5780820151818401526020810190506106f1565b50505050905090810190601f1680156107395780820380516001836020036101000a031916815260200191505b509250505060405180910390f35b6107956004803603604081101561075d57600080fd5b81019080803573ffffffffffffffffffffffffffffffffffffffff169060200190929190803515159060200190929190505050611282565b005b61079f61143a565b604051808273ffffffffffffffffffffffffffffffffffffffff1673ffffffffffffffffffffffffffffffffffffffff16815260200191505060405180910390f35b6108e4600480360360808110156107f757600080fd5b81019080803573ffffffffffffffffffffffffffffffffffffffff169060200190929190803573ffffffffffffffffffffffffffffffffffffffff169060200190929190803590602001909291908035906020019064010000000081111561085e57600080fd5b82018360208201111561087057600080fd5b8035906020019184600183028401116401000000008311171561089257600080fd5b91908080601f016020809104026020016040519081016040528093929190818152602001838380828437600081840152601f19601f820116905080830192505050505050509192919290505050611460565b005b610912600480360360208110156108fc57600080fd5b81019080803590602001909291905050506114d8565b6040518080602001828103825283818151815260200191508051906020019080838360005b83811015610952578082015181840152602081019050610937565b50505050905090810190601f16801561097f5780820380516001836020036101000a031916815260200191505b509250505060405180910390f35b610a50600480360360408110156109a357600080fd5b81019080803590602001906401000000008111156109c057600080fd5b8201836020820111156109d257600080fd5b803590602001918460018302840111640100000000831117156109f457600080fd5b91908080601f016020809104026020016040519081016040528093929190818152602001838380828437600081840152601f19601f820116905080830192505050505050509192919290803590602001909291905050506117a9565b6040518082815260200191505060405180910390f35b610ac860048036036040811015610a7c57600080fd5b81019080803573ffffffffffffffffffffffffffffffffffffffff169060200190929190803573ffffffffffffffffffffffffffffffffffffffff169060200190929190505050611841565b604051808215151515815260200191505060405180910390f35b6000806000837bffffffffffffffffffffffffffffffffffffffffffffffffffffffff19167bffffffffffffffffffffffffffffffffffffffffffffffffffffffff1916815260200190815260200160002060009054906101000a900460ff169050919050565b606060068054600181600116156101000203166002900480601f016020809104026020016040519081016040528092919081815260200182805460018160011615610100020316600290048015610be15780601f10610bb657610100808354040283529160200191610be1565b820191906000526020600020905b815481529060010190602001808311610bc457829003601f168201915b5050505050905090565b6000610bf6826118d5565b610c4b576040517f08c379a000000000000000000000000000000000000000000000000000000000815260040180806020018281038252602c815260200180613585602c913960400191505060405180910390fd5b6004600083815260200190815260200160002060009054906101000a900473ffffffffffffffffffffffffffffffffffffffff169050919050565b6000610c9182610f63565b90508073ffffffffffffffffffffffffffffffffffffffff168373ffffffffffffffffffffffffffffffffffffffff161415610d18576040517f08c379a00000000000000000000000000000000000000000000000000000000081526004018080602001828103825260218152602001806136356021913960400191505060405180910390fd5b8073ffffffffffffffffffffffffffffffffffffffff16610d376118f2565b73ffffffffffffffffffffffffffffffffffffffff161480610d665750610d6581610d606118f2565b611841565b5b610dbb576040517f08c379a00000000000000000000000000000000000000000000000000000000081526004018080602001828103825260388152602001806134d86038913960400191505060405180910390fd5b610dc583836118fa565b505050565b610ddb610dd56118f2565b836119b3565b610e30576040517f08c379a00000000000000000000000000000000000000000000000000000000081526004018080602001828103825260318152602001806136566031913960400191505060405180910390fd5b610e3a8282611aa7565b5050565b6000610e4a6002611b31565b905090565b610e60610e5a6118f2565b826119b3565b610eb5576040517f08c379a00000000000000000000000000000000000000000000000000000000081526004018080602001828103825260318152602001806136566031913960400191505060405180910390fd5b610ec0838383611b46565b505050565b6000610f1882600160008673ffffffffffffffffffffffffffffffffffffffff1673ffffffffffffffffffffffffffffffffffffffff168152602001908152602001600020611d8990919063ffffffff16565b905092915050565b610f3b83838360405180602001604052806000815250611460565b505050565b600080610f57836002611da390919063ffffffff16565b50905080915050919050565b6000610f938260405180606001604052806029815260200161353a602991396002611dd29092919063ffffffff16565b9050919050565b606060098054600181600116156101000203166002900480601f0160208091040260200160405190810160405280929190818152602001828054600181600116156101000203166002900480156110325780601f1061100757610100808354040283529160200191611032565b820191906000526020600020905b81548152906001019060200180831161101557829003601f168201915b5050505050905090565b60008073ffffffffffffffffffffffffffffffffffffffff168273ffffffffffffffffffffffffffffffffffffffff1614156110c3576040517f08c379a000000000000000000000000000000000000000000000000000000000815260040180806020018281038252602a815260200180613510602a913960400191505060405180910390fd5b61110a600160008473ffffffffffffffffffffffffffffffffffffffff1673ffffffffffffffffffffffffffffffffffffffff168152602001908152602001600020611df1565b9050919050565b7f000000000000000000000000000000000000000000000000000000000000000073ffffffffffffffffffffffffffffffffffffffff163373ffffffffffffffffffffffffffffffffffffffff16146111d2576040517f08c379a000000000000000000000000000000000000000000000000000000000815260040180806020018281038252601f8152602001807f4f6e6c7920565246436f6f7264696e61746f722063616e2066756c66696c6c0081525060200191505060405180910390fd5b6111dc8282611e06565b5050565b606060078054600181600116156101000203166002900480601f0160208091040260200160405190810160405280929190818152602001828054600181600116156101000203166002900480156112785780601f1061124d57610100808354040283529160200191611278565b820191906000526020600020905b81548152906001019060200180831161125b57829003601f168201915b5050505050905090565b61128a6118f2565b73ffffffffffffffffffffffffffffffffffffffff168273ffffffffffffffffffffffffffffffffffffffff16141561132b576040517f08c379a00000000000000000000000000000000000000000000000000000000081526004018080602001828103825260198152602001807f4552433732313a20617070726f766520746f2063616c6c65720000000000000081525060200191505060405180910390fd5b80600560006113386118f2565b73ffffffffffffffffffffffffffffffffffffffff1673ffffffffffffffffffffffffffffffffffffffff16815260200190815260200160002060008473ffffffffffffffffffffffffffffffffffffffff1673ffffffffffffffffffffffffffffffffffffffff16815260200190815260200160002060006101000a81548160ff0219169083151502179055508173ffffffffffffffffffffffffffffffffffffffff166113e56118f2565b73ffffffffffffffffffffffffffffffffffffffff167f17307eab39ab6107e8899845ad3d59bd9653f200f220920489ca2b5937696c3183604051808215151515815260200191505060405180910390a35050565b600f60009054906101000a900473ffffffffffffffffffffffffffffffffffffffff1681565b61147161146b6118f2565b836119b3565b6114c6576040517f08c379a00000000000000000000000000000000000000000000000000000000081526004018080602001828103825260318152602001806136566031913960400191505060405180910390fd5b6114d28484848461213f565b50505050565b60606114e3826118d5565b611538576040517f08c379a000000000000000000000000000000000000000000000000000000000815260040180806020018281038252602f815260200180613606602f913960400191505060405180910390fd5b6060600860008481526020019081526020016000208054600181600116156101000203166002900480601f0160208091040260200160405190810160405280929190818152602001828054600181600116156101000203166002900480156115e15780601f106115b6576101008083540402835291602001916115e1565b820191906000526020600020905b8154815290600101906020018083116115c457829003601f168201915b5050505050905060606115f2610f9a565b90506000815114156116085781925050506117a4565b6000825111156116d95780826040516020018083805190602001908083835b6020831061164a5780518252602082019150602081019050602083039250611627565b6001836020036101000a03801982511681845116808217855250505050505090500182805190602001908083835b6020831061169b5780518252602082019150602081019050602083039250611678565b6001836020036101000a03801982511681845116808217855250505050505090500192505050604051602081830303815290604052925050506117a4565b806116e3856121b1565b6040516020018083805190602001908083835b6020831061171957805182526020820191506020810190506020830392506116f6565b6001836020036101000a03801982511681845116808217855250505050505090500182805190602001908083835b6020831061176a5780518252602082019150602081019050602083039250611747565b6001836020036101000a03801982511681845116808217855250505050505090500192505050604051602081830303815290604052925050505b919050565b6000806117bb600e54601054856122f8565b905083600b600083815260200190815260200160002090805190602001906117e49291906132df565b5033600c600083815260200190815260200160002060006101000a81548173ffffffffffffffffffffffffffffffffffffffff021916908373ffffffffffffffffffffffffffffffffffffffff1602179055508091505092915050565b6000600560008473ffffffffffffffffffffffffffffffffffffffff1673ffffffffffffffffffffffffffffffffffffffff16815260200190815260200160002060008373ffffffffffffffffffffffffffffffffffffffff1673ffffffffffffffffffffffffffffffffffffffff16815260200190815260200160002060009054906101000a900460ff16905092915050565b60006118eb82600261250690919063ffffffff16565b9050919050565b600033905090565b816004600083815260200190815260200160002060006101000a81548173ffffffffffffffffffffffffffffffffffffffff021916908373ffffffffffffffffffffffffffffffffffffffff160217905550808273ffffffffffffffffffffffffffffffffffffffff1661196d83610f63565b73ffffffffffffffffffffffffffffffffffffffff167f8c5be1e5ebec7d5bd14f71427d1e84f3dd0314c0f7b2291e5b200ac8c7c3b92560405160405180910390a45050565b60006119be826118d5565b611a13576040517f08c379a000000000000000000000000000000000000000000000000000000000815260040180806020018281038252602c8152602001806134ac602c913960400191505060405180910390fd5b6000611a1e83610f63565b90508073ffffffffffffffffffffffffffffffffffffffff168473ffffffffffffffffffffffffffffffffffffffff161480611a8d57508373ffffffffffffffffffffffffffffffffffffffff16611a7584610beb565b73ffffffffffffffffffffffffffffffffffffffff16145b80611a9e5750611a9d8185611841565b5b91505092915050565b611ab0826118d5565b611b05576040517f08c379a000000000000000000000000000000000000000000000000000000000815260040180806020018281038252602c8152602001806135b1602c913960400191505060405180910390fd5b80600860008481526020019081526020016000209080519060200190611b2c9291906132df565b505050565b6000611b3f82600001612520565b9050919050565b8273ffffffffffffffffffffffffffffffffffffffff16611b6682610f63565b73ffffffffffffffffffffffffffffffffffffffff1614611bd2576040517f08c379a00000000000000000000000000000000000000000000000000000000081526004018080602001828103825260298152602001806135dd6029913960400191505060405180910390fd5b600073ffffffffffffffffffffffffffffffffffffffff168273ffffffffffffffffffffffffffffffffffffffff161415611c58576040517f08c379a00000000000000000000000000000000000000000000000000000000081526004018080602001828103825260248152602001806134406024913960400191505060405180910390fd5b611c63838383612531565b611c6e6000826118fa565b611cbf81600160008673ffffffffffffffffffffffffffffffffffffffff1673ffffffffffffffffffffffffffffffffffffffff16815260200190815260200160002061253690919063ffffffff16565b50611d1181600160008573ffffffffffffffffffffffffffffffffffffffff1673ffffffffffffffffffffffffffffffffffffffff16815260200190815260200160002061255090919063ffffffff16565b50611d288183600261256a9092919063ffffffff16565b50808273ffffffffffffffffffffffffffffffffffffffff168473ffffffffffffffffffffffffffffffffffffffff167fddf252ad1be2c89b69c2b068fc378daa952ba7f163c4a11628f55a4df523b3ef60405160405180910390a4505050565b6000611d98836000018361259f565b60001c905092915050565b600080600080611db68660000186612622565b915091508160001c8160001c8090509350935050509250929050565b6000611de5846000018460001b846126bb565b60001c90509392505050565b6000611dff826000016127b1565b9050919050565b6000600d8054905090506000620186a08381611e1e57fe5b06905060006127108481611e2e57fe5b069050611e3961335f565b6040518060a001604052806040518060400160405280601181526020017f4c6561736572204649727374206e616d6500000000000000000000000000000081525081526020016040518060400160405280601081526020017f4c6561736572204c617374206e616d6500000000000000000000000000000000815250815260200160006002811115611ec757fe5b8152602001604051806060016040528060018152602001601481526020016107e58152508152602001604051806060016040528060028152602001600181526020016107e68152508152509050600d6040518060a00160405280604051806040016040528087815260200186815250815260200160405180606001604052806027815260200161368760279139815260200160006001811115611f6657fe5b81526020018381526020016040518060600160405280602281526020016134646022913981525090806001815401808255809150506001900390600052602060002090600e0201600090919091909150600082015181600001600082015181600001556020820151816001015550506020820151816002019080519060200190611ff19291906132df565b5060408201518160030160006101000a81548160ff0219169083600181111561201657fe5b021790555060608201518160040160008201518160000190805190602001906120409291906132df565b50602082015181600101908051906020019061205d9291906132df565b5060408201518160020160006101000a81548160ff0219169083600281111561208257fe5b0217905550606082015181600301600082015181600001556020820151816001015560408201518160020155505060808201518160060160008201518160000155602082015181600101556040820151816002015550505050608082015181600d0190805190602001906120f79291906132df565b505050612137600c600088815260200190815260200160002060009054906101000a900473ffffffffffffffffffffffffffffffffffffffff16856127c2565b505050505050565b61214a848484611b46565b612156848484846127e0565b6121ab576040517f08c379a000000000000000000000000000000000000000000000000000000000815260040180806020018281038252603281526020018061340e6032913960400191505060405180910390fd5b50505050565b606060008214156121f9576040518060400160405280600181526020017f300000000000000000000000000000000000000000000000000000000000000081525090506122f3565b600082905060005b60008214612223578080600101915050600a828161221b57fe5b049150612201565b60608167ffffffffffffffff8111801561223c57600080fd5b506040519080825280601f01601f19166020018201604052801561226f5781602001600182028036833780820191505090505b50905060006001830390508593505b600084146122eb57600a848161229057fe5b0660300160f81b828280600190039350815181106122aa57fe5b60200101907effffffffffffffffffffffffffffffffffffffffffffffffffffffffffffff1916908160001a905350600a84816122e357fe5b04935061227e565b819450505050505b919050565b60007f000000000000000000000000000000000000000000000000000000000000000073ffffffffffffffffffffffffffffffffffffffff16634000aea07f000000000000000000000000000000000000000000000000000000000000000085878660405160200180838152602001828152602001925050506040516020818303038152906040526040518463ffffffff1660e01b8152600401808473ffffffffffffffffffffffffffffffffffffffff1673ffffffffffffffffffffffffffffffffffffffff16815260200183815260200180602001828103825283818151815260200191508051906020019080838360005b838110156124075780820151818401526020810190506123ec565b50505050905090810190601f1680156124345780820380516001836020036101000a031916815260200191505b50945050505050602060405180830381600087803b15801561245557600080fd5b505af1158015612469573d6000803e3d6000fd5b505050506040513d602081101561247f57600080fd5b81019080805190602001909291905050505060006124b2858430600a60008a815260200190815260200160002054612a25565b90506124db6001600a600088815260200190815260200160002054612a9f90919063ffffffff16565b600a6000878152602001908152602001600020819055506124fc8582612b27565b9150509392505050565b6000612518836000018360001b612b60565b905092915050565b600081600001805490509050919050565b505050565b6000612548836000018360001b612b83565b905092915050565b6000612562836000018360001b612c6b565b905092915050565b6000612596846000018460001b8473ffffffffffffffffffffffffffffffffffffffff1660001b612cdb565b90509392505050565b600081836000018054905011612600576040517f08c379a00000000000000000000000000000000000000000000000000000000081526004018080602001828103825260228152602001806133ec6022913960400191505060405180910390fd5b82600001828154811061260f57fe5b9060005260206000200154905092915050565b60008082846000018054905011612684576040517f08c379a00000000000000000000000000000000000000000000000000000000081526004018080602001828103825260228152602001806135636022913960400191505060405180910390fd5b600084600001848154811061269557fe5b906000526020600020906002020190508060000154816001015492509250509250929050565b60008084600101600085815260200190815260200160002054905060008114158390612782576040517f08c379a00000000000000000000000000000000000000000000000000000000081526004018080602001828103825283818151815260200191508051906020019080838360005b8381101561274757808201518184015260208101905061272c565b50505050905090810190601f1680156127745780820380516001836020036101000a031916815260200191505b509250505060405180910390fd5b5084600001600182038154811061279557fe5b9060005260206000209060020201600101549150509392505050565b600081600001805490509050919050565b6127dc828260405180602001604052806000815250612db7565b5050565b60006128018473ffffffffffffffffffffffffffffffffffffffff16612e28565b61280e5760019050612a1d565b60606129a463150b7a0260e01b6128236118f2565b888787604051602401808573ffffffffffffffffffffffffffffffffffffffff1673ffffffffffffffffffffffffffffffffffffffff1681526020018473ffffffffffffffffffffffffffffffffffffffff1673ffffffffffffffffffffffffffffffffffffffff16815260200183815260200180602001828103825283818151815260200191508051906020019080838360005b838110156128d35780820151818401526020810190506128b8565b50505050905090810190601f1680156129005780820380516001836020036101000a031916815260200191505b5095505050505050604051602081830303815290604052907bffffffffffffffffffffffffffffffffffffffffffffffffffffffff19166020820180517bffffffffffffffffffffffffffffffffffffffffffffffffffffffff838183161783525050505060405180606001604052806032815260200161340e603291398773ffffffffffffffffffffffffffffffffffffffff16612e3b9092919063ffffffff16565b905060008180602001905160208110156129bd57600080fd5b8101908080519060200190929190505050905063150b7a0260e01b7bffffffffffffffffffffffffffffffffffffffffffffffffffffffff1916817bffffffffffffffffffffffffffffffffffffffffffffffffffffffff191614925050505b949350505050565b600084848484604051602001808581526020018481526020018373ffffffffffffffffffffffffffffffffffffffff1673ffffffffffffffffffffffffffffffffffffffff1681526020018281526020019450505050506040516020818303038152906040528051906020012060001c9050949350505050565b600080828401905083811015612b1d576040517f08c379a000000000000000000000000000000000000000000000000000000000815260040180806020018281038252601b8152602001807f536166654d6174683a206164646974696f6e206f766572666c6f77000000000081525060200191505060405180910390fd5b8091505092915050565b60008282604051602001808381526020018281526020019250505060405160208183030381529060405280519060200120905092915050565b600080836001016000848152602001908152602001600020541415905092915050565b60008083600101600084815260200190815260200160002054905060008114612c5f5760006001820390506000600186600001805490500390506000866000018281548110612bce57fe5b9060005260206000200154905080876000018481548110612beb57fe5b9060005260206000200181905550600183018760010160008381526020019081526020016000208190555086600001805480612c2357fe5b60019003818190600052602060002001600090559055866001016000878152602001908152602001600020600090556001945050505050612c65565b60009150505b92915050565b6000612c778383612e53565b612cd0578260000182908060018154018082558091505060019003906000526020600020016000909190919091505582600001805490508360010160008481526020019081526020016000208190555060019050612cd5565b600090505b92915050565b6000808460010160008581526020019081526020016000205490506000811415612d8257846000016040518060400160405280868152602001858152509080600181540180825580915050600190039060005260206000209060020201600090919091909150600082015181600001556020820151816001015550508460000180549050856001016000868152602001908152602001600020819055506001915050612db0565b82856000016001830381548110612d9557fe5b90600052602060002090600202016001018190555060009150505b9392505050565b612dc18383612e76565b612dce60008484846127e0565b612e23576040517f08c379a000000000000000000000000000000000000000000000000000000000815260040180806020018281038252603281526020018061340e6032913960400191505060405180910390fd5b505050565b600080823b905060008111915050919050565b6060612e4a848460008561306a565b90509392505050565b600080836001016000848152602001908152602001600020541415905092915050565b600073ffffffffffffffffffffffffffffffffffffffff168273ffffffffffffffffffffffffffffffffffffffff161415612f19576040517f08c379a00000000000000000000000000000000000000000000000000000000081526004018080602001828103825260208152602001807f4552433732313a206d696e7420746f20746865207a65726f206164647265737381525060200191505060405180910390fd5b612f22816118d5565b15612f95576040517f08c379a000000000000000000000000000000000000000000000000000000000815260040180806020018281038252601c8152602001807f4552433732313a20746f6b656e20616c7265616479206d696e7465640000000081525060200191505060405180910390fd5b612fa160008383612531565b612ff281600160008573ffffffffffffffffffffffffffffffffffffffff1673ffffffffffffffffffffffffffffffffffffffff16815260200190815260200160002061255090919063ffffffff16565b506130098183600261256a9092919063ffffffff16565b50808273ffffffffffffffffffffffffffffffffffffffff16600073ffffffffffffffffffffffffffffffffffffffff167fddf252ad1be2c89b69c2b068fc378daa952ba7f163c4a11628f55a4df523b3ef60405160405180910390a45050565b6060824710156130c5576040517f08c379a00000000000000000000000000000000000000000000000000000000081526004018080602001828103825260268152602001806134866026913960400191505060405180910390fd5b6130ce85612e28565b613140576040517f08c379a000000000000000000000000000000000000000000000000000000000815260040180806020018281038252601d8152602001807f416464726573733a2063616c6c20746f206e6f6e2d636f6e747261637400000081525060200191505060405180910390fd5b600060608673ffffffffffffffffffffffffffffffffffffffff1685876040518082805190602001908083835b60208310613190578051825260208201915060208101905060208303925061316d565b6001836020036101000a03801982511681845116808217855250505050505090500191505060006040518083038185875af1925050503d80600081146131f2576040519150601f19603f3d011682016040523d82523d6000602084013e6131f7565b606091505b5091509150613207828286613213565b92505050949350505050565b60608315613223578290506132d8565b6000835111156132365782518084602001fd5b816040517f08c379a00000000000000000000000000000000000000000000000000000000081526004018080602001828103825283818151815260200191508051906020019080838360005b8381101561329d578082015181840152602081019050613282565b50505050905090810190601f1680156132ca5780820380516001836020036101000a031916815260200191505b509250505060405180910390fd5b9392505050565b828054600181600116156101000203166002900490600052602060002090601f016020900481019282601f1061332057805160ff191683800117855561334e565b8280016001018555821561334e579182015b8281111561334d578251825591602001919060010190613332565b5b50905061335b91906133a5565b5090565b6040518060a0016040528060608152602001606081526020016000600281111561338557fe5b81526020016133926133ca565b815260200161339f6133ca565b81525090565b6133c791905b808211156133c35760008160009055506001016133ab565b5090565b90565b6040518060600160405280600081526020016000815260200160008152509056fe456e756d657261626c655365743a20696e646578206f7574206f6620626f756e64734552433732313a207472616e7366657220746f206e6f6e20455243373231526563656976657220696d706c656d656e7465724552433732313a207472616e7366657220746f20746865207a65726f206164647265737331353020776573742032337264205374726565742c204e657720596f726b2c204e59416464726573733a20696e73756666696369656e742062616c616e636520666f722063616c6c4552433732313a206f70657261746f7220717565727920666f72206e6f6e6578697374656e7420746f6b656e4552433732313a20617070726f76652063616c6c6572206973206e6f74206f776e6572206e6f7220617070726f76656420666f7220616c6c4552433732313a2062616c616e636520717565727920666f7220746865207a65726f20616464726573734552433732313a206f776e657220717565727920666f72206e6f6e6578697374656e7420746f6b656e456e756d657261626c654d61703a20696e646578206f7574206f6620626f756e64734552433732313a20617070726f76656420717565727920666f72206e6f6e6578697374656e7420746f6b656e4552433732314d657461646174613a2055524920736574206f66206e6f6e6578697374656e7420746f6b656e4552433732313a207472616e73666572206f6620746f6b656e2074686174206973206e6f74206f776e4552433732314d657461646174613a2055524920717565727920666f72206e6f6e6578697374656e7420746f6b656e4552433732313a20617070726f76616c20746f2063757272656e74206f776e65724552433732313a207472616e736665722063616c6c6572206973206e6f74206f776e6572206e6f7220617070726f76656473696e676c652066616d696c7920686f6d652e203362722c203462612c20323433322073716674a2646970667358221220b8c92c42a1ed71d55fc9130018d2c50a601008968555d082cb0072b0327541bf64736f6c63430006060033",
  "immutableReferences": {
    "367": [
      {
        "length": 32,
        "start": 8956
      }
    ],
    "369": [
      {
        "length": 32,
        "start": 4371
      },
      {
        "length": 32,
        "start": 9016
      }
    ]
  },
  "source": "pragma solidity ^0.6.0;\n\nimport \"@openzeppelin/contracts/token/ERC721/ERC721.sol\";\nimport \"@openzeppelin/contracts/utils/Counters.sol\";\nimport \"@chainlink/contracts/src/v0.6/VRFConsumerBase.sol\";\nimport \"./PropertyNFT.sol\";\n\ncontract RealEstateNFT is PropertyNFT {\n    bytes32 internal keyHash;\n    address public vrfCoordinator;\n    uint256 internal fee;\n    constructor(address _VRFCoordinator, address _LinkToken, bytes32 _keyHash)\n    ERC721(\"RealEstateNFT\", \"RET\")\n    VRFConsumerBase(_VRFCoordinator, _LinkToken)\n    public {\n        keyHash = _keyHash;\n        vrfCoordinator = _VRFCoordinator;\n        fee = 0.1*10**18; // 0.1 LINK\n    }\n\n    function requestToMintNewRealEstateToken(string memory name, uint256 userProvidedSeed) public returns (bytes32){\n        bytes32 requestId = requestRandomness(keyHash, fee, userProvidedSeed); // request a random number\n        requestToName[requestId] = name;\n        requestToSender[requestId] = msg.sender;\n        return requestId;\n    }\n\n    function fulfillRandomness(bytes32 requestId, uint256 randomNumber) internal override {\n        // for now this is random, but it probably shouldn't be in the future lmao\n\n        uint256 newId = properties.length;\n        uint256 randomLatitude = (randomNumber % 100000);\n        uint256 randomLongitude = (randomNumber % 10000);\n\n        Lease memory activeLease = Lease({\n            leaseeFirstName:\"Leaser FIrst name\",\n            leaseeLastName:\"Leaser Last name\",\n            leaseTerm: LeaseTerm.T_12M,\n            startDateTimestamp: Date({month: 1, day: 20, year: 2021}),\n            endDateTimestamp:Date({month: 2, day: 1, year: 2022})\n        });\n//        Lease[] leases = [activeLease];\n        properties.push(\n            Property({\n                activeLease: activeLease,\n//                leases: []leases,\n                geoLocation:Location({\n                    latitude: randomLatitude,\n                    longitude: randomLongitude\n                }),\n                assetRecordType: AssetType.TITLE,\n                landDescription: \"single family home. 3br, 4ba, 2432 sqft\",\n                propertyAddress: \"150 west 23rd Street, New York, NY\"\n            })\n        );\n        _safeMint(requestToSender[requestId], newId); // minting token with ERC721 safeMint\n    }\n\n    function setTokenURI(uint256 tokenId, string memory _tokenURI) public {\n        require(\n            _isApprovedOrOwner(_msgSender(), tokenId), \"ERC721: transfer caller is not owner nor approved\"\n        );\n        _setTokenURI(tokenId, _tokenURI);\n    }\n}",
  "sourcePath": "/Users/lilian/Desktop/CryptoProj/RealEstateRoyalties/src/contracts/NFT.sol",
  "compiler": {
    "name": "solc",
    "version": "0.6.6+commit.6c089d02.Emscripten.clang"
  },
  "schemaVersion": "3.3.4",
  "updatedAt": "2021-03-27T18:36:39.667Z",
  "devdoc": {
    "methods": {
      "approve(address,uint256)": {
        "details": "See {IERC721-approve}."
      },
      "balanceOf(address)": {
        "details": "See {IERC721-balanceOf}."
      },
      "baseURI()": {
        "details": "Returns the base URI set via {_setBaseURI}. This will be automatically added as a prefix in {tokenURI} to each token's URI, or to the token ID if no specific URI is set for that token ID."
      },
      "getApproved(uint256)": {
        "details": "See {IERC721-getApproved}."
      },
      "isApprovedForAll(address,address)": {
        "details": "See {IERC721-isApprovedForAll}."
      },
      "name()": {
        "details": "See {IERC721Metadata-name}."
      },
      "ownerOf(uint256)": {
        "details": "See {IERC721-ownerOf}."
      },
      "safeTransferFrom(address,address,uint256)": {
        "details": "See {IERC721-safeTransferFrom}."
      },
      "safeTransferFrom(address,address,uint256,bytes)": {
        "details": "See {IERC721-safeTransferFrom}."
      },
      "setApprovalForAll(address,bool)": {
        "details": "See {IERC721-setApprovalForAll}."
      },
      "supportsInterface(bytes4)": {
        "details": "See {IERC165-supportsInterface}.     * Time complexity O(1), guaranteed to always use less than 30 000 gas."
      },
      "symbol()": {
        "details": "See {IERC721Metadata-symbol}."
      },
      "tokenByIndex(uint256)": {
        "details": "See {IERC721Enumerable-tokenByIndex}."
      },
      "tokenOfOwnerByIndex(address,uint256)": {
        "details": "See {IERC721Enumerable-tokenOfOwnerByIndex}."
      },
      "tokenURI(uint256)": {
        "details": "See {IERC721Metadata-tokenURI}."
      },
      "totalSupply()": {
        "details": "See {IERC721Enumerable-totalSupply}."
      },
      "transferFrom(address,address,uint256)": {
        "details": "See {IERC721-transferFrom}."
      }
    }
  },
  "userdoc": {
    "methods": {}
  }
}